{
	"DunsMultisig.sol": {
		"MultiSigWallet": {
			"abi": [
				{
					"anonymous": false,
					"inputs": [
						{
							"indexed": true,
							"internalType": "address",
							"name": "owner",
							"type": "address"
						},
						{
							"indexed": true,
							"internalType": "uint256",
							"name": "txIndex",
							"type": "uint256"
						}
					],
					"name": "ConfirmTransaction",
					"type": "event"
				},
				{
					"anonymous": false,
					"inputs": [
						{
							"indexed": true,
							"internalType": "address",
							"name": "sender",
							"type": "address"
						},
						{
							"indexed": false,
							"internalType": "uint256",
							"name": "amount",
							"type": "uint256"
						},
						{
							"indexed": false,
							"internalType": "uint256",
							"name": "balance",
							"type": "uint256"
						}
					],
					"name": "Deposit",
					"type": "event"
				},
				{
					"anonymous": false,
					"inputs": [
						{
							"indexed": true,
							"internalType": "address",
							"name": "owner",
							"type": "address"
						},
						{
							"indexed": true,
							"internalType": "uint256",
							"name": "txIndex",
							"type": "uint256"
						}
					],
					"name": "ExecuteTransaction",
					"type": "event"
				},
				{
					"anonymous": false,
					"inputs": [
						{
							"indexed": true,
							"internalType": "address",
							"name": "owner",
							"type": "address"
						},
						{
							"indexed": true,
							"internalType": "uint256",
							"name": "txIndex",
							"type": "uint256"
						}
					],
					"name": "RevokeConfirmation",
					"type": "event"
				},
				{
					"anonymous": false,
					"inputs": [
						{
							"indexed": true,
							"internalType": "address",
							"name": "owner",
							"type": "address"
						},
						{
							"indexed": true,
							"internalType": "uint256",
							"name": "txIndex",
							"type": "uint256"
						},
						{
							"indexed": true,
							"internalType": "address",
							"name": "to",
							"type": "address"
						},
						{
							"indexed": false,
							"internalType": "uint256",
							"name": "value",
							"type": "uint256"
						},
						{
							"indexed": false,
							"internalType": "bytes",
							"name": "data",
							"type": "bytes"
						}
					],
					"name": "SubmitTransaction",
					"type": "event"
				},
				{
					"inputs": [],
					"name": "numConfirmationsRequired",
					"outputs": [
						{
							"internalType": "uint256",
							"name": "",
							"type": "uint256"
						}
					],
					"stateMutability": "view",
					"type": "function"
				},
				{
					"inputs": [
						{
							"internalType": "uint256",
							"name": "",
							"type": "uint256"
						}
					],
					"name": "owners",
					"outputs": [
						{
							"internalType": "address",
							"name": "",
							"type": "address"
						}
					],
					"stateMutability": "view",
					"type": "function"
				},
				{
					"inputs": [
						{
							"internalType": "uint256",
							"name": "",
							"type": "uint256"
						}
					],
					"name": "transactions",
					"outputs": [
						{
							"internalType": "address",
							"name": "to",
							"type": "address"
						},
						{
							"internalType": "uint256",
							"name": "value",
							"type": "uint256"
						},
						{
							"internalType": "bytes",
							"name": "data",
							"type": "bytes"
						},
						{
							"internalType": "bool",
							"name": "executed",
							"type": "bool"
						}
					],
					"stateMutability": "view",
					"type": "function"
				}
			],
			"devdoc": {
				"kind": "dev",
				"methods": {},
				"version": 1
			},
			"evm": {
				"assembly": "    /* \"DunsMultisig.sol\":22:781  contract MultiSigWallet {... */\n  mstore(0x40, 0x80)\n  callvalue\n  dup1\n  iszero\n  tag_1\n  jumpi\n  0x00\n  dup1\n  revert\ntag_1:\n  pop\n  dataSize(sub_0)\n  dup1\n  dataOffset(sub_0)\n  0x00\n  codecopy\n  0x00\n  return\nstop\n\nsub_0: assembly {\n        /* \"DunsMultisig.sol\":22:781  contract MultiSigWallet {... */\n      mstore(0x40, 0x80)\n      callvalue\n      dup1\n      iszero\n      tag_1\n      jumpi\n      0x00\n      dup1\n      revert\n    tag_1:\n      pop\n      jumpi(tag_2, lt(calldatasize, 0x04))\n      shr(0xe0, calldataload(0x00))\n      dup1\n      0x025e7c27\n      eq\n      tag_3\n      jumpi\n      dup1\n      0x9ace38c2\n      eq\n      tag_4\n      jumpi\n      dup1\n      0xd0549b85\n      eq\n      tag_5\n      jumpi\n    tag_2:\n      0x00\n      dup1\n      revert\n        /* \"DunsMultisig.sol\":512:535  address[] public owners */\n    tag_3:\n      tag_6\n      0x04\n      dup1\n      calldatasize\n      sub\n      dup2\n      add\n      swap1\n      tag_7\n      swap2\n      swap1\n      tag_8\n      jump\t// in\n    tag_7:\n      tag_9\n      jump\t// in\n    tag_6:\n      mload(0x40)\n      tag_10\n      swap2\n      swap1\n      tag_11\n      jump\t// in\n    tag_10:\n      mload(0x40)\n      dup1\n      swap2\n      sub\n      swap1\n      return\n        /* \"DunsMultisig.sol\":745:778  Transaction[] public transactions */\n    tag_4:\n      tag_12\n      0x04\n      dup1\n      calldatasize\n      sub\n      dup2\n      add\n      swap1\n      tag_13\n      swap2\n      swap1\n      tag_8\n      jump\t// in\n    tag_13:\n      tag_14\n      jump\t// in\n    tag_12:\n      mload(0x40)\n      tag_15\n      swap5\n      swap4\n      swap3\n      swap2\n      swap1\n      tag_16\n      jump\t// in\n    tag_15:\n      mload(0x40)\n      dup1\n      swap2\n      sub\n      swap1\n      return\n        /* \"DunsMultisig.sol\":541:577  uint public numConfirmationsRequired */\n    tag_5:\n      tag_17\n      tag_18\n      jump\t// in\n    tag_17:\n      mload(0x40)\n      tag_19\n      swap2\n      swap1\n      tag_20\n      jump\t// in\n    tag_19:\n      mload(0x40)\n      dup1\n      swap2\n      sub\n      swap1\n      return\n        /* \"DunsMultisig.sol\":512:535  address[] public owners */\n    tag_9:\n      0x00\n      dup2\n      dup2\n      sload\n      dup2\n      lt\n      tag_21\n      jumpi\n      0x00\n      dup1\n      revert\n    tag_21:\n      swap1\n      0x00\n      mstore\n      keccak256(0x00, 0x20)\n      add\n      0x00\n      swap2\n      pop\n      sload\n      swap1\n      0x0100\n      exp\n      swap1\n      div\n      0xffffffffffffffffffffffffffffffffffffffff\n      and\n      dup2\n      jump\t// out\n        /* \"DunsMultisig.sol\":745:778  Transaction[] public transactions */\n    tag_14:\n      0x02\n      dup2\n      dup2\n      sload\n      dup2\n      lt\n      tag_23\n      jumpi\n      0x00\n      dup1\n      revert\n    tag_23:\n      swap1\n      0x00\n      mstore\n      keccak256(0x00, 0x20)\n      swap1\n      0x05\n      mul\n      add\n      0x00\n      swap2\n      pop\n      swap1\n      pop\n      dup1\n      0x00\n      add\n      0x00\n      swap1\n      sload\n      swap1\n      0x0100\n      exp\n      swap1\n      div\n      0xffffffffffffffffffffffffffffffffffffffff\n      and\n      swap1\n      dup1\n      0x01\n      add\n      sload\n      swap1\n      dup1\n      0x02\n      add\n      dup1\n      sload\n      tag_25\n      swap1\n      tag_26\n      jump\t// in\n    tag_25:\n      dup1\n      0x1f\n      add\n      0x20\n      dup1\n      swap2\n      div\n      mul\n      0x20\n      add\n      mload(0x40)\n      swap1\n      dup2\n      add\n      0x40\n      mstore\n      dup1\n      swap3\n      swap2\n      swap1\n      dup2\n      dup2\n      mstore\n      0x20\n      add\n      dup3\n      dup1\n      sload\n      tag_27\n      swap1\n      tag_26\n      jump\t// in\n    tag_27:\n      dup1\n      iszero\n      tag_28\n      jumpi\n      dup1\n      0x1f\n      lt\n      tag_29\n      jumpi\n      0x0100\n      dup1\n      dup4\n      sload\n      div\n      mul\n      dup4\n      mstore\n      swap2\n      0x20\n      add\n      swap2\n      jump(tag_28)\n    tag_29:\n      dup3\n      add\n      swap2\n      swap1\n      0x00\n      mstore\n      keccak256(0x00, 0x20)\n      swap1\n    tag_30:\n      dup2\n      sload\n      dup2\n      mstore\n      swap1\n      0x01\n      add\n      swap1\n      0x20\n      add\n      dup1\n      dup4\n      gt\n      tag_30\n      jumpi\n      dup3\n      swap1\n      sub\n      0x1f\n      and\n      dup3\n      add\n      swap2\n    tag_28:\n      pop\n      pop\n      pop\n      pop\n      pop\n      swap1\n      dup1\n      0x03\n      add\n      0x00\n      swap1\n      sload\n      swap1\n      0x0100\n      exp\n      swap1\n      div\n      0xff\n      and\n      swap1\n      pop\n      dup5\n      jump\t// out\n        /* \"DunsMultisig.sol\":541:577  uint public numConfirmationsRequired */\n    tag_18:\n      sload(0x01)\n      dup2\n      jump\t// out\n        /* \"#utility.yul\":7:146   */\n    tag_32:\n        /* \"#utility.yul\":53:58   */\n      0x00\n        /* \"#utility.yul\":91:97   */\n      dup2\n        /* \"#utility.yul\":78:98   */\n      calldataload\n        /* \"#utility.yul\":69:98   */\n      swap1\n      pop\n        /* \"#utility.yul\":107:140   */\n      tag_34\n        /* \"#utility.yul\":134:139   */\n      dup2\n        /* \"#utility.yul\":107:140   */\n      tag_35\n      jump\t// in\n    tag_34:\n        /* \"#utility.yul\":7:146   */\n      swap3\n      swap2\n      pop\n      pop\n      jump\t// out\n        /* \"#utility.yul\":152:481   */\n    tag_8:\n        /* \"#utility.yul\":211:217   */\n      0x00\n        /* \"#utility.yul\":260:262   */\n      0x20\n        /* \"#utility.yul\":248:257   */\n      dup3\n        /* \"#utility.yul\":239:246   */\n      dup5\n        /* \"#utility.yul\":235:258   */\n      sub\n        /* \"#utility.yul\":231:263   */\n      slt\n        /* \"#utility.yul\":228:347   */\n      iszero\n      tag_37\n      jumpi\n        /* \"#utility.yul\":266:345   */\n      tag_38\n      tag_39\n      jump\t// in\n    tag_38:\n        /* \"#utility.yul\":228:347   */\n    tag_37:\n        /* \"#utility.yul\":386:387   */\n      0x00\n        /* \"#utility.yul\":411:464   */\n      tag_40\n        /* \"#utility.yul\":456:463   */\n      dup5\n        /* \"#utility.yul\":447:453   */\n      dup3\n        /* \"#utility.yul\":436:445   */\n      dup6\n        /* \"#utility.yul\":432:454   */\n      add\n        /* \"#utility.yul\":411:464   */\n      tag_32\n      jump\t// in\n    tag_40:\n        /* \"#utility.yul\":401:464   */\n      swap2\n      pop\n        /* \"#utility.yul\":357:474   */\n      pop\n        /* \"#utility.yul\":152:481   */\n      swap3\n      swap2\n      pop\n      pop\n      jump\t// out\n        /* \"#utility.yul\":487:605   */\n    tag_41:\n        /* \"#utility.yul\":574:598   */\n      tag_43\n        /* \"#utility.yul\":592:597   */\n      dup2\n        /* \"#utility.yul\":574:598   */\n      tag_44\n      jump\t// in\n    tag_43:\n        /* \"#utility.yul\":569:572   */\n      dup3\n        /* \"#utility.yul\":562:599   */\n      mstore\n        /* \"#utility.yul\":487:605   */\n      pop\n      pop\n      jump\t// out\n        /* \"#utility.yul\":611:720   */\n    tag_45:\n        /* \"#utility.yul\":692:713   */\n      tag_47\n        /* \"#utility.yul\":707:712   */\n      dup2\n        /* \"#utility.yul\":692:713   */\n      tag_48\n      jump\t// in\n    tag_47:\n        /* \"#utility.yul\":687:690   */\n      dup3\n        /* \"#utility.yul\":680:714   */\n      mstore\n        /* \"#utility.yul\":611:720   */\n      pop\n      pop\n      jump\t// out\n        /* \"#utility.yul\":726:1086   */\n    tag_49:\n        /* \"#utility.yul\":812:815   */\n      0x00\n        /* \"#utility.yul\":840:878   */\n      tag_51\n        /* \"#utility.yul\":872:877   */\n      dup3\n        /* \"#utility.yul\":840:878   */\n      tag_52\n      jump\t// in\n    tag_51:\n        /* \"#utility.yul\":894:964   */\n      tag_53\n        /* \"#utility.yul\":957:963   */\n      dup2\n        /* \"#utility.yul\":952:955   */\n      dup6\n        /* \"#utility.yul\":894:964   */\n      tag_54\n      jump\t// in\n    tag_53:\n        /* \"#utility.yul\":887:964   */\n      swap4\n      pop\n        /* \"#utility.yul\":973:1025   */\n      tag_55\n        /* \"#utility.yul\":1018:1024   */\n      dup2\n        /* \"#utility.yul\":1013:1016   */\n      dup6\n        /* \"#utility.yul\":1006:1010   */\n      0x20\n        /* \"#utility.yul\":999:1004   */\n      dup7\n        /* \"#utility.yul\":995:1011   */\n      add\n        /* \"#utility.yul\":973:1025   */\n      tag_56\n      jump\t// in\n    tag_55:\n        /* \"#utility.yul\":1050:1079   */\n      tag_57\n        /* \"#utility.yul\":1072:1078   */\n      dup2\n        /* \"#utility.yul\":1050:1079   */\n      tag_58\n      jump\t// in\n    tag_57:\n        /* \"#utility.yul\":1045:1048   */\n      dup5\n        /* \"#utility.yul\":1041:1080   */\n      add\n        /* \"#utility.yul\":1034:1080   */\n      swap2\n      pop\n        /* \"#utility.yul\":816:1086   */\n      pop\n        /* \"#utility.yul\":726:1086   */\n      swap3\n      swap2\n      pop\n      pop\n      jump\t// out\n        /* \"#utility.yul\":1092:1210   */\n    tag_59:\n        /* \"#utility.yul\":1179:1203   */\n      tag_61\n        /* \"#utility.yul\":1197:1202   */\n      dup2\n        /* \"#utility.yul\":1179:1203   */\n      tag_62\n      jump\t// in\n    tag_61:\n        /* \"#utility.yul\":1174:1177   */\n      dup3\n        /* \"#utility.yul\":1167:1204   */\n      mstore\n        /* \"#utility.yul\":1092:1210   */\n      pop\n      pop\n      jump\t// out\n        /* \"#utility.yul\":1216:1438   */\n    tag_11:\n        /* \"#utility.yul\":1309:1313   */\n      0x00\n        /* \"#utility.yul\":1347:1349   */\n      0x20\n        /* \"#utility.yul\":1336:1345   */\n      dup3\n        /* \"#utility.yul\":1332:1350   */\n      add\n        /* \"#utility.yul\":1324:1350   */\n      swap1\n      pop\n        /* \"#utility.yul\":1360:1431   */\n      tag_64\n        /* \"#utility.yul\":1428:1429   */\n      0x00\n        /* \"#utility.yul\":1417:1426   */\n      dup4\n        /* \"#utility.yul\":1413:1430   */\n      add\n        /* \"#utility.yul\":1404:1410   */\n      dup5\n        /* \"#utility.yul\":1360:1431   */\n      tag_41\n      jump\t// in\n    tag_64:\n        /* \"#utility.yul\":1216:1438   */\n      swap3\n      swap2\n      pop\n      pop\n      jump\t// out\n        /* \"#utility.yul\":1444:2072   */\n    tag_16:\n        /* \"#utility.yul\":1633:1637   */\n      0x00\n        /* \"#utility.yul\":1671:1674   */\n      0x80\n        /* \"#utility.yul\":1660:1669   */\n      dup3\n        /* \"#utility.yul\":1656:1675   */\n      add\n        /* \"#utility.yul\":1648:1675   */\n      swap1\n      pop\n        /* \"#utility.yul\":1685:1756   */\n      tag_66\n        /* \"#utility.yul\":1753:1754   */\n      0x00\n        /* \"#utility.yul\":1742:1751   */\n      dup4\n        /* \"#utility.yul\":1738:1755   */\n      add\n        /* \"#utility.yul\":1729:1735   */\n      dup8\n        /* \"#utility.yul\":1685:1756   */\n      tag_41\n      jump\t// in\n    tag_66:\n        /* \"#utility.yul\":1766:1838   */\n      tag_67\n        /* \"#utility.yul\":1834:1836   */\n      0x20\n        /* \"#utility.yul\":1823:1832   */\n      dup4\n        /* \"#utility.yul\":1819:1837   */\n      add\n        /* \"#utility.yul\":1810:1816   */\n      dup7\n        /* \"#utility.yul\":1766:1838   */\n      tag_59\n      jump\t// in\n    tag_67:\n        /* \"#utility.yul\":1885:1894   */\n      dup2\n        /* \"#utility.yul\":1879:1883   */\n      dup2\n        /* \"#utility.yul\":1875:1895   */\n      sub\n        /* \"#utility.yul\":1870:1872   */\n      0x40\n        /* \"#utility.yul\":1859:1868   */\n      dup4\n        /* \"#utility.yul\":1855:1873   */\n      add\n        /* \"#utility.yul\":1848:1896   */\n      mstore\n        /* \"#utility.yul\":1913:1989   */\n      tag_68\n        /* \"#utility.yul\":1984:1988   */\n      dup2\n        /* \"#utility.yul\":1975:1981   */\n      dup6\n        /* \"#utility.yul\":1913:1989   */\n      tag_49\n      jump\t// in\n    tag_68:\n        /* \"#utility.yul\":1905:1989   */\n      swap1\n      pop\n        /* \"#utility.yul\":1999:2065   */\n      tag_69\n        /* \"#utility.yul\":2061:2063   */\n      0x60\n        /* \"#utility.yul\":2050:2059   */\n      dup4\n        /* \"#utility.yul\":2046:2064   */\n      add\n        /* \"#utility.yul\":2037:2043   */\n      dup5\n        /* \"#utility.yul\":1999:2065   */\n      tag_45\n      jump\t// in\n    tag_69:\n        /* \"#utility.yul\":1444:2072   */\n      swap6\n      swap5\n      pop\n      pop\n      pop\n      pop\n      pop\n      jump\t// out\n        /* \"#utility.yul\":2078:2300   */\n    tag_20:\n        /* \"#utility.yul\":2171:2175   */\n      0x00\n        /* \"#utility.yul\":2209:2211   */\n      0x20\n        /* \"#utility.yul\":2198:2207   */\n      dup3\n        /* \"#utility.yul\":2194:2212   */\n      add\n        /* \"#utility.yul\":2186:2212   */\n      swap1\n      pop\n        /* \"#utility.yul\":2222:2293   */\n      tag_71\n        /* \"#utility.yul\":2290:2291   */\n      0x00\n        /* \"#utility.yul\":2279:2288   */\n      dup4\n        /* \"#utility.yul\":2275:2292   */\n      add\n        /* \"#utility.yul\":2266:2272   */\n      dup5\n        /* \"#utility.yul\":2222:2293   */\n      tag_59\n      jump\t// in\n    tag_71:\n        /* \"#utility.yul\":2078:2300   */\n      swap3\n      swap2\n      pop\n      pop\n      jump\t// out\n        /* \"#utility.yul\":2387:2485   */\n    tag_52:\n        /* \"#utility.yul\":2438:2444   */\n      0x00\n        /* \"#utility.yul\":2472:2477   */\n      dup2\n        /* \"#utility.yul\":2466:2478   */\n      mload\n        /* \"#utility.yul\":2456:2478   */\n      swap1\n      pop\n        /* \"#utility.yul\":2387:2485   */\n      swap2\n      swap1\n      pop\n      jump\t// out\n        /* \"#utility.yul\":2491:2659   */\n    tag_54:\n        /* \"#utility.yul\":2574:2585   */\n      0x00\n        /* \"#utility.yul\":2608:2614   */\n      dup3\n        /* \"#utility.yul\":2603:2606   */\n      dup3\n        /* \"#utility.yul\":2596:2615   */\n      mstore\n        /* \"#utility.yul\":2648:2652   */\n      0x20\n        /* \"#utility.yul\":2643:2646   */\n      dup3\n        /* \"#utility.yul\":2639:2653   */\n      add\n        /* \"#utility.yul\":2624:2653   */\n      swap1\n      pop\n        /* \"#utility.yul\":2491:2659   */\n      swap3\n      swap2\n      pop\n      pop\n      jump\t// out\n        /* \"#utility.yul\":2665:2761   */\n    tag_44:\n        /* \"#utility.yul\":2702:2709   */\n      0x00\n        /* \"#utility.yul\":2731:2755   */\n      tag_77\n        /* \"#utility.yul\":2749:2754   */\n      dup3\n        /* \"#utility.yul\":2731:2755   */\n      tag_78\n      jump\t// in\n    tag_77:\n        /* \"#utility.yul\":2720:2755   */\n      swap1\n      pop\n        /* \"#utility.yul\":2665:2761   */\n      swap2\n      swap1\n      pop\n      jump\t// out\n        /* \"#utility.yul\":2767:2857   */\n    tag_48:\n        /* \"#utility.yul\":2801:2808   */\n      0x00\n        /* \"#utility.yul\":2844:2849   */\n      dup2\n        /* \"#utility.yul\":2837:2850   */\n      iszero\n        /* \"#utility.yul\":2830:2851   */\n      iszero\n        /* \"#utility.yul\":2819:2851   */\n      swap1\n      pop\n        /* \"#utility.yul\":2767:2857   */\n      swap2\n      swap1\n      pop\n      jump\t// out\n        /* \"#utility.yul\":2863:2989   */\n    tag_78:\n        /* \"#utility.yul\":2900:2907   */\n      0x00\n        /* \"#utility.yul\":2940:2982   */\n      0xffffffffffffffffffffffffffffffffffffffff\n        /* \"#utility.yul\":2933:2938   */\n      dup3\n        /* \"#utility.yul\":2929:2983   */\n      and\n        /* \"#utility.yul\":2918:2983   */\n      swap1\n      pop\n        /* \"#utility.yul\":2863:2989   */\n      swap2\n      swap1\n      pop\n      jump\t// out\n        /* \"#utility.yul\":2995:3072   */\n    tag_62:\n        /* \"#utility.yul\":3032:3039   */\n      0x00\n        /* \"#utility.yul\":3061:3066   */\n      dup2\n        /* \"#utility.yul\":3050:3066   */\n      swap1\n      pop\n        /* \"#utility.yul\":2995:3072   */\n      swap2\n      swap1\n      pop\n      jump\t// out\n        /* \"#utility.yul\":3078:3385   */\n    tag_56:\n        /* \"#utility.yul\":3146:3147   */\n      0x00\n        /* \"#utility.yul\":3156:3269   */\n    tag_83:\n        /* \"#utility.yul\":3170:3176   */\n      dup4\n        /* \"#utility.yul\":3167:3168   */\n      dup2\n        /* \"#utility.yul\":3164:3177   */\n      lt\n        /* \"#utility.yul\":3156:3269   */\n      iszero\n      tag_85\n      jumpi\n        /* \"#utility.yul\":3255:3256   */\n      dup1\n        /* \"#utility.yul\":3250:3253   */\n      dup3\n        /* \"#utility.yul\":3246:3257   */\n      add\n        /* \"#utility.yul\":3240:3258   */\n      mload\n        /* \"#utility.yul\":3236:3237   */\n      dup2\n        /* \"#utility.yul\":3231:3234   */\n      dup5\n        /* \"#utility.yul\":3227:3238   */\n      add\n        /* \"#utility.yul\":3220:3259   */\n      mstore\n        /* \"#utility.yul\":3192:3194   */\n      0x20\n        /* \"#utility.yul\":3189:3190   */\n      dup2\n        /* \"#utility.yul\":3185:3195   */\n      add\n        /* \"#utility.yul\":3180:3195   */\n      swap1\n      pop\n        /* \"#utility.yul\":3156:3269   */\n      jump(tag_83)\n    tag_85:\n        /* \"#utility.yul\":3287:3293   */\n      dup4\n        /* \"#utility.yul\":3284:3285   */\n      dup2\n        /* \"#utility.yul\":3281:3294   */\n      gt\n        /* \"#utility.yul\":3278:3379   */\n      iszero\n      tag_86\n      jumpi\n        /* \"#utility.yul\":3367:3368   */\n      0x00\n        /* \"#utility.yul\":3358:3364   */\n      dup5\n        /* \"#utility.yul\":3353:3356   */\n      dup5\n        /* \"#utility.yul\":3349:3365   */\n      add\n        /* \"#utility.yul\":3342:3369   */\n      mstore\n        /* \"#utility.yul\":3278:3379   */\n    tag_86:\n        /* \"#utility.yul\":3127:3385   */\n      pop\n        /* \"#utility.yul\":3078:3385   */\n      pop\n      pop\n      pop\n      jump\t// out\n        /* \"#utility.yul\":3391:3711   */\n    tag_26:\n        /* \"#utility.yul\":3435:3441   */\n      0x00\n        /* \"#utility.yul\":3472:3473   */\n      0x02\n        /* \"#utility.yul\":3466:3470   */\n      dup3\n        /* \"#utility.yul\":3462:3474   */\n      div\n        /* \"#utility.yul\":3452:3474   */\n      swap1\n      pop\n        /* \"#utility.yul\":3519:3520   */\n      0x01\n        /* \"#utility.yul\":3513:3517   */\n      dup3\n        /* \"#utility.yul\":3509:3521   */\n      and\n        /* \"#utility.yul\":3540:3558   */\n      dup1\n        /* \"#utility.yul\":3530:3611   */\n      tag_88\n      jumpi\n        /* \"#utility.yul\":3596:3600   */\n      0x7f\n        /* \"#utility.yul\":3588:3594   */\n      dup3\n        /* \"#utility.yul\":3584:3601   */\n      and\n        /* \"#utility.yul\":3574:3601   */\n      swap2\n      pop\n        /* \"#utility.yul\":3530:3611   */\n    tag_88:\n        /* \"#utility.yul\":3658:3660   */\n      0x20\n        /* \"#utility.yul\":3650:3656   */\n      dup3\n        /* \"#utility.yul\":3647:3661   */\n      lt\n        /* \"#utility.yul\":3627:3645   */\n      dup2\n        /* \"#utility.yul\":3624:3662   */\n      eq\n        /* \"#utility.yul\":3621:3705   */\n      iszero\n      tag_89\n      jumpi\n        /* \"#utility.yul\":3677:3695   */\n      tag_90\n      tag_91\n      jump\t// in\n    tag_90:\n        /* \"#utility.yul\":3621:3705   */\n    tag_89:\n        /* \"#utility.yul\":3442:3711   */\n      pop\n        /* \"#utility.yul\":3391:3711   */\n      swap2\n      swap1\n      pop\n      jump\t// out\n        /* \"#utility.yul\":3717:3897   */\n    tag_91:\n        /* \"#utility.yul\":3765:3842   */\n      0x4e487b7100000000000000000000000000000000000000000000000000000000\n        /* \"#utility.yul\":3762:3763   */\n      0x00\n        /* \"#utility.yul\":3755:3843   */\n      mstore\n        /* \"#utility.yul\":3862:3866   */\n      0x22\n        /* \"#utility.yul\":3859:3860   */\n      0x04\n        /* \"#utility.yul\":3852:3867   */\n      mstore\n        /* \"#utility.yul\":3886:3890   */\n      0x24\n        /* \"#utility.yul\":3883:3884   */\n      0x00\n        /* \"#utility.yul\":3876:3891   */\n      revert\n        /* \"#utility.yul\":4026:4143   */\n    tag_39:\n        /* \"#utility.yul\":4135:4136   */\n      0x00\n        /* \"#utility.yul\":4132:4133   */\n      dup1\n        /* \"#utility.yul\":4125:4137   */\n      revert\n        /* \"#utility.yul\":4149:4251   */\n    tag_58:\n        /* \"#utility.yul\":4190:4196   */\n      0x00\n        /* \"#utility.yul\":4241:4243   */\n      0x1f\n        /* \"#utility.yul\":4237:4244   */\n      not\n        /* \"#utility.yul\":4232:4234   */\n      0x1f\n        /* \"#utility.yul\":4225:4230   */\n      dup4\n        /* \"#utility.yul\":4221:4235   */\n      add\n        /* \"#utility.yul\":4217:4245   */\n      and\n        /* \"#utility.yul\":4207:4245   */\n      swap1\n      pop\n        /* \"#utility.yul\":4149:4251   */\n      swap2\n      swap1\n      pop\n      jump\t// out\n        /* \"#utility.yul\":4257:4379   */\n    tag_35:\n        /* \"#utility.yul\":4330:4354   */\n      tag_98\n        /* \"#utility.yul\":4348:4353   */\n      dup2\n        /* \"#utility.yul\":4330:4354   */\n      tag_62\n      jump\t// in\n    tag_98:\n        /* \"#utility.yul\":4323:4328   */\n      dup2\n        /* \"#utility.yul\":4320:4355   */\n      eq\n        /* \"#utility.yul\":4310:4373   */\n      tag_99\n      jumpi\n        /* \"#utility.yul\":4369:4370   */\n      0x00\n        /* \"#utility.yul\":4366:4367   */\n      dup1\n        /* \"#utility.yul\":4359:4371   */\n      revert\n        /* \"#utility.yul\":4310:4373   */\n    tag_99:\n        /* \"#utility.yul\":4257:4379   */\n      pop\n      jump\t// out\n\n    auxdata: 0xa26469706673582212207a3578f7d3ff87870526d7947705b4624cda3a0db0b93f0ca98e705d9f2a310b64736f6c63430008070033\n}\n",
				"bytecode": {
					"linkReferences": {},
					"object": "608060405234801561001057600080fd5b50610486806100206000396000f3fe608060405234801561001057600080fd5b50600436106100415760003560e01c8063025e7c27146100465780639ace38c214610076578063d0549b85146100a9575b600080fd5b610060600480360381019061005b9190610216565b6100c7565b60405161006d91906102a9565b60405180910390f35b610090600480360381019061008b9190610216565b610106565b6040516100a094939291906102c4565b60405180910390f35b6100b16101fb565b6040516100be9190610310565b60405180910390f35b600081815481106100d757600080fd5b906000526020600020016000915054906101000a900473ffffffffffffffffffffffffffffffffffffffff1681565b6002818154811061011657600080fd5b90600052602060002090600502016000915090508060000160009054906101000a900473ffffffffffffffffffffffffffffffffffffffff1690806001015490806002018054610165906103c2565b80601f0160208091040260200160405190810160405280929190818152602001828054610191906103c2565b80156101de5780601f106101b3576101008083540402835291602001916101de565b820191906000526020600020905b8154815290600101906020018083116101c157829003601f168201915b5050505050908060030160009054906101000a900460ff16905084565b60015481565b60008135905061021081610439565b92915050565b60006020828403121561022c5761022b610423565b5b600061023a84828501610201565b91505092915050565b61024c81610347565b82525050565b61025b81610359565b82525050565b600061026c8261032b565b6102768185610336565b935061028681856020860161038f565b61028f81610428565b840191505092915050565b6102a381610385565b82525050565b60006020820190506102be6000830184610243565b92915050565b60006080820190506102d96000830187610243565b6102e6602083018661029a565b81810360408301526102f88185610261565b90506103076060830184610252565b95945050505050565b6000602082019050610325600083018461029a565b92915050565b600081519050919050565b600082825260208201905092915050565b600061035282610365565b9050919050565b60008115159050919050565b600073ffffffffffffffffffffffffffffffffffffffff82169050919050565b6000819050919050565b60005b838110156103ad578082015181840152602081019050610392565b838111156103bc576000848401525b50505050565b600060028204905060018216806103da57607f821691505b602082108114156103ee576103ed6103f4565b5b50919050565b7f4e487b7100000000000000000000000000000000000000000000000000000000600052602260045260246000fd5b600080fd5b6000601f19601f8301169050919050565b61044281610385565b811461044d57600080fd5b5056fea26469706673582212207a3578f7d3ff87870526d7947705b4624cda3a0db0b93f0ca98e705d9f2a310b64736f6c63430008070033",
					"opcodes": "PUSH1 0x80 PUSH1 0x40 MSTORE CALLVALUE DUP1 ISZERO PUSH2 0x10 JUMPI PUSH1 0x0 DUP1 REVERT JUMPDEST POP PUSH2 0x486 DUP1 PUSH2 0x20 PUSH1 0x0 CODECOPY PUSH1 0x0 RETURN INVALID PUSH1 0x80 PUSH1 0x40 MSTORE CALLVALUE DUP1 ISZERO PUSH2 0x10 JUMPI PUSH1 0x0 DUP1 REVERT JUMPDEST POP PUSH1 0x4 CALLDATASIZE LT PUSH2 0x41 JUMPI PUSH1 0x0 CALLDATALOAD PUSH1 0xE0 SHR DUP1 PUSH4 0x25E7C27 EQ PUSH2 0x46 JUMPI DUP1 PUSH4 0x9ACE38C2 EQ PUSH2 0x76 JUMPI DUP1 PUSH4 0xD0549B85 EQ PUSH2 0xA9 JUMPI JUMPDEST PUSH1 0x0 DUP1 REVERT JUMPDEST PUSH2 0x60 PUSH1 0x4 DUP1 CALLDATASIZE SUB DUP2 ADD SWAP1 PUSH2 0x5B SWAP2 SWAP1 PUSH2 0x216 JUMP JUMPDEST PUSH2 0xC7 JUMP JUMPDEST PUSH1 0x40 MLOAD PUSH2 0x6D SWAP2 SWAP1 PUSH2 0x2A9 JUMP JUMPDEST PUSH1 0x40 MLOAD DUP1 SWAP2 SUB SWAP1 RETURN JUMPDEST PUSH2 0x90 PUSH1 0x4 DUP1 CALLDATASIZE SUB DUP2 ADD SWAP1 PUSH2 0x8B SWAP2 SWAP1 PUSH2 0x216 JUMP JUMPDEST PUSH2 0x106 JUMP JUMPDEST PUSH1 0x40 MLOAD PUSH2 0xA0 SWAP5 SWAP4 SWAP3 SWAP2 SWAP1 PUSH2 0x2C4 JUMP JUMPDEST PUSH1 0x40 MLOAD DUP1 SWAP2 SUB SWAP1 RETURN JUMPDEST PUSH2 0xB1 PUSH2 0x1FB JUMP JUMPDEST PUSH1 0x40 MLOAD PUSH2 0xBE SWAP2 SWAP1 PUSH2 0x310 JUMP JUMPDEST PUSH1 0x40 MLOAD DUP1 SWAP2 SUB SWAP1 RETURN JUMPDEST PUSH1 0x0 DUP2 DUP2 SLOAD DUP2 LT PUSH2 0xD7 JUMPI PUSH1 0x0 DUP1 REVERT JUMPDEST SWAP1 PUSH1 0x0 MSTORE PUSH1 0x20 PUSH1 0x0 KECCAK256 ADD PUSH1 0x0 SWAP2 POP SLOAD SWAP1 PUSH2 0x100 EXP SWAP1 DIV PUSH20 0xFFFFFFFFFFFFFFFFFFFFFFFFFFFFFFFFFFFFFFFF AND DUP2 JUMP JUMPDEST PUSH1 0x2 DUP2 DUP2 SLOAD DUP2 LT PUSH2 0x116 JUMPI PUSH1 0x0 DUP1 REVERT JUMPDEST SWAP1 PUSH1 0x0 MSTORE PUSH1 0x20 PUSH1 0x0 KECCAK256 SWAP1 PUSH1 0x5 MUL ADD PUSH1 0x0 SWAP2 POP SWAP1 POP DUP1 PUSH1 0x0 ADD PUSH1 0x0 SWAP1 SLOAD SWAP1 PUSH2 0x100 EXP SWAP1 DIV PUSH20 0xFFFFFFFFFFFFFFFFFFFFFFFFFFFFFFFFFFFFFFFF AND SWAP1 DUP1 PUSH1 0x1 ADD SLOAD SWAP1 DUP1 PUSH1 0x2 ADD DUP1 SLOAD PUSH2 0x165 SWAP1 PUSH2 0x3C2 JUMP JUMPDEST DUP1 PUSH1 0x1F ADD PUSH1 0x20 DUP1 SWAP2 DIV MUL PUSH1 0x20 ADD PUSH1 0x40 MLOAD SWAP1 DUP2 ADD PUSH1 0x40 MSTORE DUP1 SWAP3 SWAP2 SWAP1 DUP2 DUP2 MSTORE PUSH1 0x20 ADD DUP3 DUP1 SLOAD PUSH2 0x191 SWAP1 PUSH2 0x3C2 JUMP JUMPDEST DUP1 ISZERO PUSH2 0x1DE JUMPI DUP1 PUSH1 0x1F LT PUSH2 0x1B3 JUMPI PUSH2 0x100 DUP1 DUP4 SLOAD DIV MUL DUP4 MSTORE SWAP2 PUSH1 0x20 ADD SWAP2 PUSH2 0x1DE JUMP JUMPDEST DUP3 ADD SWAP2 SWAP1 PUSH1 0x0 MSTORE PUSH1 0x20 PUSH1 0x0 KECCAK256 SWAP1 JUMPDEST DUP2 SLOAD DUP2 MSTORE SWAP1 PUSH1 0x1 ADD SWAP1 PUSH1 0x20 ADD DUP1 DUP4 GT PUSH2 0x1C1 JUMPI DUP3 SWAP1 SUB PUSH1 0x1F AND DUP3 ADD SWAP2 JUMPDEST POP POP POP POP POP SWAP1 DUP1 PUSH1 0x3 ADD PUSH1 0x0 SWAP1 SLOAD SWAP1 PUSH2 0x100 EXP SWAP1 DIV PUSH1 0xFF AND SWAP1 POP DUP5 JUMP JUMPDEST PUSH1 0x1 SLOAD DUP2 JUMP JUMPDEST PUSH1 0x0 DUP2 CALLDATALOAD SWAP1 POP PUSH2 0x210 DUP2 PUSH2 0x439 JUMP JUMPDEST SWAP3 SWAP2 POP POP JUMP JUMPDEST PUSH1 0x0 PUSH1 0x20 DUP3 DUP5 SUB SLT ISZERO PUSH2 0x22C JUMPI PUSH2 0x22B PUSH2 0x423 JUMP JUMPDEST JUMPDEST PUSH1 0x0 PUSH2 0x23A DUP5 DUP3 DUP6 ADD PUSH2 0x201 JUMP JUMPDEST SWAP2 POP POP SWAP3 SWAP2 POP POP JUMP JUMPDEST PUSH2 0x24C DUP2 PUSH2 0x347 JUMP JUMPDEST DUP3 MSTORE POP POP JUMP JUMPDEST PUSH2 0x25B DUP2 PUSH2 0x359 JUMP JUMPDEST DUP3 MSTORE POP POP JUMP JUMPDEST PUSH1 0x0 PUSH2 0x26C DUP3 PUSH2 0x32B JUMP JUMPDEST PUSH2 0x276 DUP2 DUP6 PUSH2 0x336 JUMP JUMPDEST SWAP4 POP PUSH2 0x286 DUP2 DUP6 PUSH1 0x20 DUP7 ADD PUSH2 0x38F JUMP JUMPDEST PUSH2 0x28F DUP2 PUSH2 0x428 JUMP JUMPDEST DUP5 ADD SWAP2 POP POP SWAP3 SWAP2 POP POP JUMP JUMPDEST PUSH2 0x2A3 DUP2 PUSH2 0x385 JUMP JUMPDEST DUP3 MSTORE POP POP JUMP JUMPDEST PUSH1 0x0 PUSH1 0x20 DUP3 ADD SWAP1 POP PUSH2 0x2BE PUSH1 0x0 DUP4 ADD DUP5 PUSH2 0x243 JUMP JUMPDEST SWAP3 SWAP2 POP POP JUMP JUMPDEST PUSH1 0x0 PUSH1 0x80 DUP3 ADD SWAP1 POP PUSH2 0x2D9 PUSH1 0x0 DUP4 ADD DUP8 PUSH2 0x243 JUMP JUMPDEST PUSH2 0x2E6 PUSH1 0x20 DUP4 ADD DUP7 PUSH2 0x29A JUMP JUMPDEST DUP2 DUP2 SUB PUSH1 0x40 DUP4 ADD MSTORE PUSH2 0x2F8 DUP2 DUP6 PUSH2 0x261 JUMP JUMPDEST SWAP1 POP PUSH2 0x307 PUSH1 0x60 DUP4 ADD DUP5 PUSH2 0x252 JUMP JUMPDEST SWAP6 SWAP5 POP POP POP POP POP JUMP JUMPDEST PUSH1 0x0 PUSH1 0x20 DUP3 ADD SWAP1 POP PUSH2 0x325 PUSH1 0x0 DUP4 ADD DUP5 PUSH2 0x29A JUMP JUMPDEST SWAP3 SWAP2 POP POP JUMP JUMPDEST PUSH1 0x0 DUP2 MLOAD SWAP1 POP SWAP2 SWAP1 POP JUMP JUMPDEST PUSH1 0x0 DUP3 DUP3 MSTORE PUSH1 0x20 DUP3 ADD SWAP1 POP SWAP3 SWAP2 POP POP JUMP JUMPDEST PUSH1 0x0 PUSH2 0x352 DUP3 PUSH2 0x365 JUMP JUMPDEST SWAP1 POP SWAP2 SWAP1 POP JUMP JUMPDEST PUSH1 0x0 DUP2 ISZERO ISZERO SWAP1 POP SWAP2 SWAP1 POP JUMP JUMPDEST PUSH1 0x0 PUSH20 0xFFFFFFFFFFFFFFFFFFFFFFFFFFFFFFFFFFFFFFFF DUP3 AND SWAP1 POP SWAP2 SWAP1 POP JUMP JUMPDEST PUSH1 0x0 DUP2 SWAP1 POP SWAP2 SWAP1 POP JUMP JUMPDEST PUSH1 0x0 JUMPDEST DUP4 DUP2 LT ISZERO PUSH2 0x3AD JUMPI DUP1 DUP3 ADD MLOAD DUP2 DUP5 ADD MSTORE PUSH1 0x20 DUP2 ADD SWAP1 POP PUSH2 0x392 JUMP JUMPDEST DUP4 DUP2 GT ISZERO PUSH2 0x3BC JUMPI PUSH1 0x0 DUP5 DUP5 ADD MSTORE JUMPDEST POP POP POP POP JUMP JUMPDEST PUSH1 0x0 PUSH1 0x2 DUP3 DIV SWAP1 POP PUSH1 0x1 DUP3 AND DUP1 PUSH2 0x3DA JUMPI PUSH1 0x7F DUP3 AND SWAP2 POP JUMPDEST PUSH1 0x20 DUP3 LT DUP2 EQ ISZERO PUSH2 0x3EE JUMPI PUSH2 0x3ED PUSH2 0x3F4 JUMP JUMPDEST JUMPDEST POP SWAP2 SWAP1 POP JUMP JUMPDEST PUSH32 0x4E487B7100000000000000000000000000000000000000000000000000000000 PUSH1 0x0 MSTORE PUSH1 0x22 PUSH1 0x4 MSTORE PUSH1 0x24 PUSH1 0x0 REVERT JUMPDEST PUSH1 0x0 DUP1 REVERT JUMPDEST PUSH1 0x0 PUSH1 0x1F NOT PUSH1 0x1F DUP4 ADD AND SWAP1 POP SWAP2 SWAP1 POP JUMP JUMPDEST PUSH2 0x442 DUP2 PUSH2 0x385 JUMP JUMPDEST DUP2 EQ PUSH2 0x44D JUMPI PUSH1 0x0 DUP1 REVERT JUMPDEST POP JUMP INVALID LOG2 PUSH5 0x6970667358 0x22 SLT KECCAK256 PUSH27 0x3578F7D3FF87870526D7947705B4624CDA3A0DB0B93F0CA98E705D SWAP16 0x2A BALANCE SIGNEXTEND PUSH5 0x736F6C6343 STOP ADDMOD SMOD STOP CALLER "
				},
				"gasEstimates": {
					"creation": {
						"codeDepositCost": "231600",
						"executionCost": "275",
						"totalCost": "231875"
					},
					"external": {
						"numConfirmationsRequired()": "2451",
						"owners(uint256)": "4934",
						"transactions(uint256)": "infinite"
					}
				},
				"methodIdentifiers": {
					"numConfirmationsRequired()": "d0549b85",
					"owners(uint256)": "025e7c27",
					"transactions(uint256)": "9ace38c2"
				}
			},
			"userdoc": {
				"kind": "user",
				"methods": {},
				"version": 1
			}
		}
	}
}