{
	"oluwadunni.sol": {
		"OluwadunniToken": {
			"abi": [
				{
					"inputs": [],
					"stateMutability": "nonpayable",
					"type": "constructor"
				},
				{
					"anonymous": false,
					"inputs": [
						{
							"indexed": true,
							"internalType": "address",
							"name": "owner",
							"type": "address"
						},
						{
							"indexed": true,
							"internalType": "address",
							"name": "spender",
							"type": "address"
						},
						{
							"indexed": false,
							"internalType": "uint256",
							"name": "value",
							"type": "uint256"
						}
					],
					"name": "Approval",
					"type": "event"
				},
				{
					"anonymous": false,
					"inputs": [
						{
							"indexed": false,
							"internalType": "uint256",
							"name": "value",
							"type": "uint256"
						}
					],
					"name": "Received",
					"type": "event"
				},
				{
					"anonymous": false,
					"inputs": [
						{
							"indexed": true,
							"internalType": "address",
							"name": "from",
							"type": "address"
						},
						{
							"indexed": true,
							"internalType": "address",
							"name": "to",
							"type": "address"
						},
						{
							"indexed": false,
							"internalType": "uint256",
							"name": "value",
							"type": "uint256"
						}
					],
					"name": "Transfer",
					"type": "event"
				},
				{
					"stateMutability": "payable",
					"type": "fallback"
				},
				{
					"inputs": [
						{
							"internalType": "address",
							"name": "_owner",
							"type": "address"
						},
						{
							"internalType": "address",
							"name": "_spender",
							"type": "address"
						}
					],
					"name": "allowance",
					"outputs": [
						{
							"internalType": "uint256",
							"name": "",
							"type": "uint256"
						}
					],
					"stateMutability": "view",
					"type": "function"
				},
				{
					"inputs": [
						{
							"internalType": "address",
							"name": "_spender",
							"type": "address"
						},
						{
							"internalType": "uint256",
							"name": "_amount",
							"type": "uint256"
						}
					],
					"name": "approve",
					"outputs": [
						{
							"internalType": "bool",
							"name": "",
							"type": "bool"
						}
					],
					"stateMutability": "nonpayable",
					"type": "function"
				},
				{
					"inputs": [
						{
							"internalType": "address",
							"name": "",
							"type": "address"
						}
					],
					"name": "balanceOf",
					"outputs": [
						{
							"internalType": "uint256",
							"name": "",
							"type": "uint256"
						}
					],
					"stateMutability": "view",
					"type": "function"
				},
				{
					"inputs": [],
					"name": "decimals",
					"outputs": [
						{
							"internalType": "uint256",
							"name": "",
							"type": "uint256"
						}
					],
					"stateMutability": "view",
					"type": "function"
				},
				{
					"inputs": [],
					"name": "deposit",
					"outputs": [],
					"stateMutability": "payable",
					"type": "function"
				},
				{
					"inputs": [],
					"name": "getBalance",
					"outputs": [
						{
							"internalType": "uint256",
							"name": "",
							"type": "uint256"
						}
					],
					"stateMutability": "view",
					"type": "function"
				},
				{
					"inputs": [],
					"name": "name",
					"outputs": [
						{
							"internalType": "string",
							"name": "",
							"type": "string"
						}
					],
					"stateMutability": "view",
					"type": "function"
				},
				{
					"inputs": [],
					"name": "symbol",
					"outputs": [
						{
							"internalType": "string",
							"name": "",
							"type": "string"
						}
					],
					"stateMutability": "view",
					"type": "function"
				},
				{
					"inputs": [],
					"name": "totalSupply",
					"outputs": [
						{
							"internalType": "uint256",
							"name": "",
							"type": "uint256"
						}
					],
					"stateMutability": "view",
					"type": "function"
				},
				{
					"inputs": [
						{
							"internalType": "address",
							"name": "_to",
							"type": "address"
						},
						{
							"internalType": "uint256",
							"name": "_amount",
							"type": "uint256"
						}
					],
					"name": "transfer",
					"outputs": [
						{
							"internalType": "bool",
							"name": "",
							"type": "bool"
						}
					],
					"stateMutability": "nonpayable",
					"type": "function"
				},
				{
					"inputs": [
						{
							"internalType": "address",
							"name": "_from",
							"type": "address"
						},
						{
							"internalType": "address",
							"name": "_to",
							"type": "address"
						},
						{
							"internalType": "uint256",
							"name": "_amount",
							"type": "uint256"
						}
					],
					"name": "transferFrom",
					"outputs": [
						{
							"internalType": "bool",
							"name": "",
							"type": "bool"
						}
					],
					"stateMutability": "nonpayable",
					"type": "function"
				},
				{
					"stateMutability": "payable",
					"type": "receive"
				}
			],
			"devdoc": {
				"kind": "dev",
				"methods": {},
				"stateVariables": {
					"balanceOf": {
						"details": "Returns the amount of tokens owned by `account`."
					},
					"totalSupply": {
						"details": "Returns the amount of tokens in existence."
					}
				},
				"version": 1
			},
			"evm": {
				"assembly": "    /* \"oluwadunni.sol\":105:1790  contract OluwadunniToken is IERC20{... */\n  mstore(0x40, 0x80)\n    /* \"oluwadunni.sol\":142:175  string public name = \"Oluwadunni\" */\n  mload(0x40)\n  dup1\n  0x40\n  add\n  0x40\n  mstore\n  dup1\n  0x0a\n  dup2\n  mstore\n  0x20\n  add\n  0x4f6c75776164756e6e6900000000000000000000000000000000000000000000\n  dup2\n  mstore\n  pop\n  0x00\n  swap1\n  dup1\n  mload\n  swap1\n  0x20\n  add\n  swap1\n  tag_1\n  swap3\n  swap2\n  swap1\n  tag_2\n  jump\t// in\ntag_1:\n  pop\n    /* \"oluwadunni.sol\":177:206  string public symbol = \"DUNS\" */\n  mload(0x40)\n  dup1\n  0x40\n  add\n  0x40\n  mstore\n  dup1\n  0x04\n  dup2\n  mstore\n  0x20\n  add\n  0x44554e5300000000000000000000000000000000000000000000000000000000\n  dup2\n  mstore\n  pop\n  0x01\n  swap1\n  dup1\n  mload\n  swap1\n  0x20\n  add\n  swap1\n  tag_3\n  swap3\n  swap2\n  swap1\n  tag_2\n  jump\t// in\ntag_3:\n  pop\n    /* \"oluwadunni.sol\":231:233  18 */\n  0x12\n    /* \"oluwadunni.sol\":208:233  uint public decimals = 18 */\n  0x02\n  sstore\n    /* \"oluwadunni.sol\":290:298  decimals */\n  sload(0x02)\n    /* \"oluwadunni.sol\":284:286  10 */\n  0x0a\n    /* \"oluwadunni.sol\":284:298  10 ** decimals */\n  tag_4\n  swap2\n  swap1\n  tag_5\n  jump\t// in\ntag_4:\n    /* \"oluwadunni.sol\":270:280  1000000000 */\n  0x3b9aca00\n    /* \"oluwadunni.sol\":270:299  1000000000 * (10 ** decimals) */\n  tag_6\n  swap2\n  swap1\n  tag_7\n  jump\t// in\ntag_6:\n    /* \"oluwadunni.sol\":235:299  uint public override totalSupply = 1000000000 * (10 ** decimals) */\n  0x03\n  sstore\n    /* \"oluwadunni.sol\":302:359  constructor(){... */\n  callvalue\n  dup1\n  iszero\n  tag_8\n  jumpi\n  0x00\n  dup1\n  revert\ntag_8:\n  pop\n    /* \"oluwadunni.sol\":345:356  totalSupply */\n  sload(0x03)\n    /* \"oluwadunni.sol\":321:330  balanceOf */\n  0x04\n    /* \"oluwadunni.sol\":321:342  balanceOf[msg.sender] */\n  0x00\n    /* \"oluwadunni.sol\":331:341  msg.sender */\n  caller\n    /* \"oluwadunni.sol\":321:342  balanceOf[msg.sender] */\n  0xffffffffffffffffffffffffffffffffffffffff\n  and\n  0xffffffffffffffffffffffffffffffffffffffff\n  and\n  dup2\n  mstore\n  0x20\n  add\n  swap1\n  dup2\n  mstore\n  0x20\n  add\n  0x00\n  keccak256\n    /* \"oluwadunni.sol\":321:356  balanceOf[msg.sender] = totalSupply */\n  dup2\n  swap1\n  sstore\n  pop\n    /* \"oluwadunni.sol\":105:1790  contract OluwadunniToken is IERC20{... */\n  jump(tag_11)\ntag_2:\n  dup3\n  dup1\n  sload\n  tag_12\n  swap1\n  tag_13\n  jump\t// in\ntag_12:\n  swap1\n  0x00\n  mstore\n  keccak256(0x00, 0x20)\n  swap1\n  0x1f\n  add\n  0x20\n  swap1\n  div\n  dup2\n  add\n  swap3\n  dup3\n  tag_15\n  jumpi\n  0x00\n  dup6\n  sstore\n  jump(tag_14)\ntag_15:\n  dup3\n  0x1f\n  lt\n  tag_16\n  jumpi\n  dup1\n  mload\n  not(0xff)\n  and\n  dup4\n  dup1\n  add\n  or\n  dup6\n  sstore\n  jump(tag_14)\ntag_16:\n  dup3\n  dup1\n  add\n  0x01\n  add\n  dup6\n  sstore\n  dup3\n  iszero\n  tag_14\n  jumpi\n  swap2\n  dup3\n  add\ntag_17:\n  dup3\n  dup2\n  gt\n  iszero\n  tag_18\n  jumpi\n  dup3\n  mload\n  dup3\n  sstore\n  swap2\n  0x20\n  add\n  swap2\n  swap1\n  0x01\n  add\n  swap1\n  jump(tag_17)\ntag_18:\ntag_14:\n  pop\n  swap1\n  pop\n  tag_19\n  swap2\n  swap1\n  tag_20\n  jump\t// in\ntag_19:\n  pop\n  swap1\n  jump\t// out\ntag_20:\ntag_21:\n  dup1\n  dup3\n  gt\n  iszero\n  tag_22\n  jumpi\n  0x00\n  dup2\n  0x00\n  swap1\n  sstore\n  pop\n  0x01\n  add\n  jump(tag_21)\ntag_22:\n  pop\n  swap1\n  jump\t// out\n    /* \"#utility.yul\":7:855   */\ntag_24:\n    /* \"#utility.yul\":68:73   */\n  0x00\n    /* \"#utility.yul\":75:79   */\n  dup1\n    /* \"#utility.yul\":99:105   */\n  dup3\n    /* \"#utility.yul\":90:105   */\n  swap2\n  pop\n    /* \"#utility.yul\":123:128   */\n  dup4\n    /* \"#utility.yul\":114:128   */\n  swap1\n  pop\n    /* \"#utility.yul\":137:849   */\ntag_26:\n    /* \"#utility.yul\":158:159   */\n  0x01\n    /* \"#utility.yul\":148:156   */\n  dup6\n    /* \"#utility.yul\":145:160   */\n  gt\n    /* \"#utility.yul\":137:849   */\n  iszero\n  tag_28\n  jumpi\n    /* \"#utility.yul\":253:257   */\n  dup1\n    /* \"#utility.yul\":248:251   */\n  dup7\n    /* \"#utility.yul\":244:258   */\n  div\n    /* \"#utility.yul\":238:242   */\n  dup2\n    /* \"#utility.yul\":235:259   */\n  gt\n    /* \"#utility.yul\":232:282   */\n  iszero\n  tag_29\n  jumpi\n    /* \"#utility.yul\":262:280   */\n  tag_30\n  tag_31\n  jump\t// in\ntag_30:\n    /* \"#utility.yul\":232:282   */\ntag_29:\n    /* \"#utility.yul\":312:313   */\n  0x01\n    /* \"#utility.yul\":302:310   */\n  dup6\n    /* \"#utility.yul\":298:314   */\n  and\n    /* \"#utility.yul\":295:746   */\n  iszero\n  tag_32\n  jumpi\n    /* \"#utility.yul\":727:731   */\n  dup1\n    /* \"#utility.yul\":720:725   */\n  dup3\n    /* \"#utility.yul\":716:732   */\n  mul\n    /* \"#utility.yul\":707:732   */\n  swap2\n  pop\n    /* \"#utility.yul\":295:746   */\ntag_32:\n    /* \"#utility.yul\":777:781   */\n  dup1\n    /* \"#utility.yul\":771:775   */\n  dup2\n    /* \"#utility.yul\":767:782   */\n  mul\n    /* \"#utility.yul\":759:782   */\n  swap1\n  pop\n    /* \"#utility.yul\":807:839   */\n  tag_33\n    /* \"#utility.yul\":830:838   */\n  dup6\n    /* \"#utility.yul\":807:839   */\n  tag_34\n  jump\t// in\ntag_33:\n    /* \"#utility.yul\":795:839   */\n  swap5\n  pop\n    /* \"#utility.yul\":137:849   */\n  jump(tag_26)\ntag_28:\n    /* \"#utility.yul\":7:855   */\n  swap5\n  pop\n  swap5\n  swap3\n  pop\n  pop\n  pop\n  jump\t// out\n    /* \"#utility.yul\":861:1146   */\ntag_5:\n    /* \"#utility.yul\":921:926   */\n  0x00\n    /* \"#utility.yul\":945:968   */\n  tag_36\n    /* \"#utility.yul\":963:967   */\n  dup3\n    /* \"#utility.yul\":945:968   */\n  tag_37\n  jump\t// in\ntag_36:\n    /* \"#utility.yul\":937:968   */\n  swap2\n  pop\n    /* \"#utility.yul\":989:1016   */\n  tag_38\n    /* \"#utility.yul\":1007:1015   */\n  dup4\n    /* \"#utility.yul\":989:1016   */\n  tag_37\n  jump\t// in\ntag_38:\n    /* \"#utility.yul\":977:1016   */\n  swap3\n  pop\n    /* \"#utility.yul\":1035:1139   */\n  tag_39\n    /* \"#utility.yul\":1072:1138   */\n  0xffffffffffffffffffffffffffffffffffffffffffffffffffffffffffffffff\n    /* \"#utility.yul\":1062:1070   */\n  dup5\n    /* \"#utility.yul\":1056:1060   */\n  dup5\n    /* \"#utility.yul\":1035:1139   */\n  tag_40\n  jump\t// in\ntag_39:\n    /* \"#utility.yul\":1026:1139   */\n  swap1\n  pop\n    /* \"#utility.yul\":861:1146   */\n  swap3\n  swap2\n  pop\n  pop\n  jump\t// out\n    /* \"#utility.yul\":1152:2225   */\ntag_40:\n    /* \"#utility.yul\":1206:1211   */\n  0x00\n    /* \"#utility.yul\":1397:1405   */\n  dup3\n    /* \"#utility.yul\":1387:1427   */\n  tag_42\n  jumpi\n    /* \"#utility.yul\":1418:1419   */\n  0x01\n    /* \"#utility.yul\":1409:1419   */\n  swap1\n  pop\n    /* \"#utility.yul\":1420:1425   */\n  jump(tag_41)\n    /* \"#utility.yul\":1387:1427   */\ntag_42:\n    /* \"#utility.yul\":1446:1450   */\n  dup2\n    /* \"#utility.yul\":1436:1472   */\n  tag_43\n  jumpi\n    /* \"#utility.yul\":1463:1464   */\n  0x00\n    /* \"#utility.yul\":1454:1464   */\n  swap1\n  pop\n    /* \"#utility.yul\":1465:1470   */\n  jump(tag_41)\n    /* \"#utility.yul\":1436:1472   */\ntag_43:\n    /* \"#utility.yul\":1532:1536   */\n  dup2\n    /* \"#utility.yul\":1580:1581   */\n  0x01\n    /* \"#utility.yul\":1575:1602   */\n  dup2\n  eq\n  tag_45\n  jumpi\n    /* \"#utility.yul\":1616:1617   */\n  0x02\n    /* \"#utility.yul\":1611:1802   */\n  dup2\n  eq\n  tag_46\n  jumpi\n    /* \"#utility.yul\":1525:1802   */\n  jump(tag_44)\n    /* \"#utility.yul\":1575:1602   */\ntag_45:\n    /* \"#utility.yul\":1593:1594   */\n  0x01\n    /* \"#utility.yul\":1584:1594   */\n  swap2\n  pop\n    /* \"#utility.yul\":1595:1600   */\n  pop\n  jump(tag_41)\n    /* \"#utility.yul\":1611:1802   */\ntag_46:\n    /* \"#utility.yul\":1656:1659   */\n  0xff\n    /* \"#utility.yul\":1646:1654   */\n  dup5\n    /* \"#utility.yul\":1643:1660   */\n  gt\n    /* \"#utility.yul\":1640:1683   */\n  iszero\n  tag_47\n  jumpi\n    /* \"#utility.yul\":1663:1681   */\n  tag_48\n  tag_31\n  jump\t// in\ntag_48:\n    /* \"#utility.yul\":1640:1683   */\ntag_47:\n    /* \"#utility.yul\":1712:1720   */\n  dup4\n    /* \"#utility.yul\":1709:1710   */\n  0x02\n    /* \"#utility.yul\":1705:1721   */\n  exp\n    /* \"#utility.yul\":1696:1721   */\n  swap2\n  pop\n    /* \"#utility.yul\":1747:1750   */\n  dup5\n    /* \"#utility.yul\":1740:1745   */\n  dup3\n    /* \"#utility.yul\":1737:1751   */\n  gt\n    /* \"#utility.yul\":1734:1774   */\n  iszero\n  tag_49\n  jumpi\n    /* \"#utility.yul\":1754:1772   */\n  tag_50\n  tag_31\n  jump\t// in\ntag_50:\n    /* \"#utility.yul\":1734:1774   */\ntag_49:\n    /* \"#utility.yul\":1787:1792   */\n  pop\n  jump(tag_41)\n    /* \"#utility.yul\":1525:1802   */\ntag_44:\n  pop\n    /* \"#utility.yul\":1911:1913   */\n  0x20\n    /* \"#utility.yul\":1901:1909   */\n  dup4\n    /* \"#utility.yul\":1898:1914   */\n  lt\n    /* \"#utility.yul\":1892:1895   */\n  0x0133\n    /* \"#utility.yul\":1886:1890   */\n  dup4\n    /* \"#utility.yul\":1883:1896   */\n  lt\n    /* \"#utility.yul\":1879:1915   */\n  and\n    /* \"#utility.yul\":1861:1863   */\n  0x4e\n    /* \"#utility.yul\":1851:1859   */\n  dup5\n    /* \"#utility.yul\":1848:1864   */\n  lt\n    /* \"#utility.yul\":1843:1845   */\n  0x0b\n    /* \"#utility.yul\":1837:1841   */\n  dup5\n    /* \"#utility.yul\":1834:1846   */\n  lt\n    /* \"#utility.yul\":1830:1865   */\n  and\n    /* \"#utility.yul\":1814:1925   */\n  or\n    /* \"#utility.yul\":1811:2057   */\n  iszero\n  tag_51\n  jumpi\n    /* \"#utility.yul\":1967:1975   */\n  dup3\n    /* \"#utility.yul\":1961:1965   */\n  dup3\n    /* \"#utility.yul\":1957:1976   */\n  exp\n    /* \"#utility.yul\":1948:1976   */\n  swap1\n  pop\n    /* \"#utility.yul\":2002:2005   */\n  dup4\n    /* \"#utility.yul\":1995:2000   */\n  dup2\n    /* \"#utility.yul\":1992:2006   */\n  gt\n    /* \"#utility.yul\":1989:2029   */\n  iszero\n  tag_52\n  jumpi\n    /* \"#utility.yul\":2009:2027   */\n  tag_53\n  tag_31\n  jump\t// in\ntag_53:\n    /* \"#utility.yul\":1989:2029   */\ntag_52:\n    /* \"#utility.yul\":2042:2047   */\n  jump(tag_41)\n    /* \"#utility.yul\":1811:2057   */\ntag_51:\n    /* \"#utility.yul\":2082:2124   */\n  tag_54\n    /* \"#utility.yul\":2120:2123   */\n  dup5\n    /* \"#utility.yul\":2110:2118   */\n  dup5\n    /* \"#utility.yul\":2104:2108   */\n  dup5\n    /* \"#utility.yul\":2101:2102   */\n  0x01\n    /* \"#utility.yul\":2082:2124   */\n  tag_24\n  jump\t// in\ntag_54:\n    /* \"#utility.yul\":2067:2124   */\n  swap3\n  pop\n  swap1\n  pop\n    /* \"#utility.yul\":2156:2160   */\n  dup2\n    /* \"#utility.yul\":2151:2154   */\n  dup5\n    /* \"#utility.yul\":2147:2161   */\n  div\n    /* \"#utility.yul\":2140:2145   */\n  dup2\n    /* \"#utility.yul\":2137:2162   */\n  gt\n    /* \"#utility.yul\":2134:2185   */\n  iszero\n  tag_55\n  jumpi\n    /* \"#utility.yul\":2165:2183   */\n  tag_56\n  tag_31\n  jump\t// in\ntag_56:\n    /* \"#utility.yul\":2134:2185   */\ntag_55:\n    /* \"#utility.yul\":2214:2218   */\n  dup2\n    /* \"#utility.yul\":2207:2212   */\n  dup2\n    /* \"#utility.yul\":2203:2219   */\n  mul\n    /* \"#utility.yul\":2194:2219   */\n  swap1\n  pop\n    /* \"#utility.yul\":1152:2225   */\ntag_41:\n  swap4\n  swap3\n  pop\n  pop\n  pop\n  jump\t// out\n    /* \"#utility.yul\":2231:2579   */\ntag_7:\n    /* \"#utility.yul\":2271:2278   */\n  0x00\n    /* \"#utility.yul\":2294:2314   */\n  tag_58\n    /* \"#utility.yul\":2312:2313   */\n  dup3\n    /* \"#utility.yul\":2294:2314   */\n  tag_37\n  jump\t// in\ntag_58:\n    /* \"#utility.yul\":2289:2314   */\n  swap2\n  pop\n    /* \"#utility.yul\":2328:2348   */\n  tag_59\n    /* \"#utility.yul\":2346:2347   */\n  dup4\n    /* \"#utility.yul\":2328:2348   */\n  tag_37\n  jump\t// in\ntag_59:\n    /* \"#utility.yul\":2323:2348   */\n  swap3\n  pop\n    /* \"#utility.yul\":2516:2517   */\n  dup2\n    /* \"#utility.yul\":2448:2514   */\n  0xffffffffffffffffffffffffffffffffffffffffffffffffffffffffffffffff\n    /* \"#utility.yul\":2444:2518   */\n  div\n    /* \"#utility.yul\":2441:2442   */\n  dup4\n    /* \"#utility.yul\":2438:2519   */\n  gt\n    /* \"#utility.yul\":2433:2434   */\n  dup3\n    /* \"#utility.yul\":2426:2435   */\n  iszero\n    /* \"#utility.yul\":2419:2436   */\n  iszero\n    /* \"#utility.yul\":2415:2520   */\n  and\n    /* \"#utility.yul\":2412:2543   */\n  iszero\n  tag_60\n  jumpi\n    /* \"#utility.yul\":2523:2541   */\n  tag_61\n  tag_31\n  jump\t// in\ntag_61:\n    /* \"#utility.yul\":2412:2543   */\ntag_60:\n    /* \"#utility.yul\":2571:2572   */\n  dup3\n    /* \"#utility.yul\":2568:2569   */\n  dup3\n    /* \"#utility.yul\":2564:2573   */\n  mul\n    /* \"#utility.yul\":2553:2573   */\n  swap1\n  pop\n    /* \"#utility.yul\":2231:2579   */\n  swap3\n  swap2\n  pop\n  pop\n  jump\t// out\n    /* \"#utility.yul\":2585:2662   */\ntag_37:\n    /* \"#utility.yul\":2622:2629   */\n  0x00\n    /* \"#utility.yul\":2651:2656   */\n  dup2\n    /* \"#utility.yul\":2640:2656   */\n  swap1\n  pop\n    /* \"#utility.yul\":2585:2662   */\n  swap2\n  swap1\n  pop\n  jump\t// out\n    /* \"#utility.yul\":2668:2988   */\ntag_13:\n    /* \"#utility.yul\":2712:2718   */\n  0x00\n    /* \"#utility.yul\":2749:2750   */\n  0x02\n    /* \"#utility.yul\":2743:2747   */\n  dup3\n    /* \"#utility.yul\":2739:2751   */\n  div\n    /* \"#utility.yul\":2729:2751   */\n  swap1\n  pop\n    /* \"#utility.yul\":2796:2797   */\n  0x01\n    /* \"#utility.yul\":2790:2794   */\n  dup3\n    /* \"#utility.yul\":2786:2798   */\n  and\n    /* \"#utility.yul\":2817:2835   */\n  dup1\n    /* \"#utility.yul\":2807:2888   */\n  tag_64\n  jumpi\n    /* \"#utility.yul\":2873:2877   */\n  0x7f\n    /* \"#utility.yul\":2865:2871   */\n  dup3\n    /* \"#utility.yul\":2861:2878   */\n  and\n    /* \"#utility.yul\":2851:2878   */\n  swap2\n  pop\n    /* \"#utility.yul\":2807:2888   */\ntag_64:\n    /* \"#utility.yul\":2935:2937   */\n  0x20\n    /* \"#utility.yul\":2927:2933   */\n  dup3\n    /* \"#utility.yul\":2924:2938   */\n  lt\n    /* \"#utility.yul\":2904:2922   */\n  dup2\n    /* \"#utility.yul\":2901:2939   */\n  eq\n    /* \"#utility.yul\":2898:2982   */\n  iszero\n  tag_65\n  jumpi\n    /* \"#utility.yul\":2954:2972   */\n  tag_66\n  tag_67\n  jump\t// in\ntag_66:\n    /* \"#utility.yul\":2898:2982   */\ntag_65:\n    /* \"#utility.yul\":2719:2988   */\n  pop\n    /* \"#utility.yul\":2668:2988   */\n  swap2\n  swap1\n  pop\n  jump\t// out\n    /* \"#utility.yul\":2994:3174   */\ntag_31:\n    /* \"#utility.yul\":3042:3119   */\n  0x4e487b7100000000000000000000000000000000000000000000000000000000\n    /* \"#utility.yul\":3039:3040   */\n  0x00\n    /* \"#utility.yul\":3032:3120   */\n  mstore\n    /* \"#utility.yul\":3139:3143   */\n  0x11\n    /* \"#utility.yul\":3136:3137   */\n  0x04\n    /* \"#utility.yul\":3129:3144   */\n  mstore\n    /* \"#utility.yul\":3163:3167   */\n  0x24\n    /* \"#utility.yul\":3160:3161   */\n  0x00\n    /* \"#utility.yul\":3153:3168   */\n  revert\n    /* \"#utility.yul\":3180:3360   */\ntag_67:\n    /* \"#utility.yul\":3228:3305   */\n  0x4e487b7100000000000000000000000000000000000000000000000000000000\n    /* \"#utility.yul\":3225:3226   */\n  0x00\n    /* \"#utility.yul\":3218:3306   */\n  mstore\n    /* \"#utility.yul\":3325:3329   */\n  0x22\n    /* \"#utility.yul\":3322:3323   */\n  0x04\n    /* \"#utility.yul\":3315:3330   */\n  mstore\n    /* \"#utility.yul\":3349:3353   */\n  0x24\n    /* \"#utility.yul\":3346:3347   */\n  0x00\n    /* \"#utility.yul\":3339:3354   */\n  revert\n    /* \"#utility.yul\":3366:3468   */\ntag_34:\n    /* \"#utility.yul\":3408:3416   */\n  0x00\n    /* \"#utility.yul\":3455:3460   */\n  dup2\n    /* \"#utility.yul\":3452:3453   */\n  0x01\n    /* \"#utility.yul\":3448:3461   */\n  shr\n    /* \"#utility.yul\":3427:3461   */\n  swap1\n  pop\n    /* \"#utility.yul\":3366:3468   */\n  swap2\n  swap1\n  pop\n  jump\t// out\n    /* \"oluwadunni.sol\":105:1790  contract OluwadunniToken is IERC20{... */\ntag_11:\n  dataSize(sub_0)\n  dup1\n  dataOffset(sub_0)\n  0x00\n  codecopy\n  0x00\n  return\nstop\n\nsub_0: assembly {\n        /* \"oluwadunni.sol\":105:1790  contract OluwadunniToken is IERC20{... */\n      mstore(0x40, 0x80)\n      jumpi(tag_1, lt(calldatasize, 0x04))\n      shr(0xe0, calldataload(0x00))\n      dup1\n      0x313ce567\n      gt\n      tag_14\n      jumpi\n      dup1\n      0x313ce567\n      eq\n      tag_8\n      jumpi\n      dup1\n      0x70a08231\n      eq\n      tag_9\n      jumpi\n      dup1\n      0x95d89b41\n      eq\n      tag_10\n      jumpi\n      dup1\n      0xa9059cbb\n      eq\n      tag_11\n      jumpi\n      dup1\n      0xd0e30db0\n      eq\n      tag_12\n      jumpi\n      dup1\n      0xdd62ed3e\n      eq\n      tag_13\n      jumpi\n      jump(tag_2)\n    tag_14:\n      dup1\n      0x06fdde03\n      eq\n      tag_3\n      jumpi\n      dup1\n      0x095ea7b3\n      eq\n      tag_4\n      jumpi\n      dup1\n      0x12065fe0\n      eq\n      tag_5\n      jumpi\n      dup1\n      0x18160ddd\n      eq\n      tag_6\n      jumpi\n      dup1\n      0x23b872dd\n      eq\n      tag_7\n      jumpi\n      jump(tag_2)\n    tag_1:\n      jumpi(tag_2, calldatasize)\n        /* \"oluwadunni.sol\":1764:1783  Received(msg.value) */\n      0xa8142743f8f70a4c26f3691cf4ed59718381fb2f18070ec52be1f1022d855557\n        /* \"oluwadunni.sol\":1773:1782  msg.value */\n      callvalue\n        /* \"oluwadunni.sol\":1764:1783  Received(msg.value) */\n      mload(0x40)\n      tag_17\n      swap2\n      swap1\n      tag_18\n      jump\t// in\n    tag_17:\n      mload(0x40)\n      dup1\n      swap2\n      sub\n      swap1\n      log1\n        /* \"oluwadunni.sol\":105:1790  contract OluwadunniToken is IERC20{... */\n      stop\n    tag_2:\n        /* \"oluwadunni.sol\":1702:1721  Received(msg.value) */\n      0xa8142743f8f70a4c26f3691cf4ed59718381fb2f18070ec52be1f1022d855557\n        /* \"oluwadunni.sol\":1711:1720  msg.value */\n      callvalue\n        /* \"oluwadunni.sol\":1702:1721  Received(msg.value) */\n      mload(0x40)\n      tag_21\n      swap2\n      swap1\n      tag_18\n      jump\t// in\n    tag_21:\n      mload(0x40)\n      dup1\n      swap2\n      sub\n      swap1\n      log1\n        /* \"oluwadunni.sol\":105:1790  contract OluwadunniToken is IERC20{... */\n      stop\n        /* \"oluwadunni.sol\":142:175  string public name = \"Oluwadunni\" */\n    tag_3:\n      callvalue\n      dup1\n      iszero\n      tag_22\n      jumpi\n      0x00\n      dup1\n      revert\n    tag_22:\n      pop\n      tag_23\n      tag_24\n      jump\t// in\n    tag_23:\n      mload(0x40)\n      tag_25\n      swap2\n      swap1\n      tag_26\n      jump\t// in\n    tag_25:\n      mload(0x40)\n      dup1\n      swap2\n      sub\n      swap1\n      return\n        /* \"oluwadunni.sol\":853:1131  function approve(address _spender, uint256 _amount) public override returns(bool){... */\n    tag_4:\n      callvalue\n      dup1\n      iszero\n      tag_27\n      jumpi\n      0x00\n      dup1\n      revert\n    tag_27:\n      pop\n      tag_28\n      0x04\n      dup1\n      calldatasize\n      sub\n      dup2\n      add\n      swap1\n      tag_29\n      swap2\n      swap1\n      tag_30\n      jump\t// in\n    tag_29:\n      tag_31\n      jump\t// in\n    tag_28:\n      mload(0x40)\n      tag_32\n      swap2\n      swap1\n      tag_33\n      jump\t// in\n    tag_32:\n      mload(0x40)\n      dup1\n      swap2\n      sub\n      swap1\n      return\n        /* \"oluwadunni.sol\":1573:1661  function getBalance()public view returns(uint256) {... */\n    tag_5:\n      callvalue\n      dup1\n      iszero\n      tag_34\n      jumpi\n      0x00\n      dup1\n      revert\n    tag_34:\n      pop\n      tag_35\n      tag_36\n      jump\t// in\n    tag_35:\n      mload(0x40)\n      tag_37\n      swap2\n      swap1\n      tag_18\n      jump\t// in\n    tag_37:\n      mload(0x40)\n      dup1\n      swap2\n      sub\n      swap1\n      return\n        /* \"oluwadunni.sol\":235:299  uint public override totalSupply = 1000000000 * (10 ** decimals) */\n    tag_6:\n      callvalue\n      dup1\n      iszero\n      tag_38\n      jumpi\n      0x00\n      dup1\n      revert\n    tag_38:\n      pop\n      tag_39\n      tag_40\n      jump\t// in\n    tag_39:\n      mload(0x40)\n      tag_41\n      swap2\n      swap1\n      tag_18\n      jump\t// in\n    tag_41:\n      mload(0x40)\n      dup1\n      swap2\n      sub\n      swap1\n      return\n        /* \"oluwadunni.sol\":1133:1473  function transferFrom(address _from, address _to, uint256 _amount) public override returns(bool){... */\n    tag_7:\n      callvalue\n      dup1\n      iszero\n      tag_42\n      jumpi\n      0x00\n      dup1\n      revert\n    tag_42:\n      pop\n      tag_43\n      0x04\n      dup1\n      calldatasize\n      sub\n      dup2\n      add\n      swap1\n      tag_44\n      swap2\n      swap1\n      tag_45\n      jump\t// in\n    tag_44:\n      tag_46\n      jump\t// in\n    tag_43:\n      mload(0x40)\n      tag_47\n      swap2\n      swap1\n      tag_33\n      jump\t// in\n    tag_47:\n      mload(0x40)\n      dup1\n      swap2\n      sub\n      swap1\n      return\n        /* \"oluwadunni.sol\":208:233  uint public decimals = 18 */\n    tag_8:\n      callvalue\n      dup1\n      iszero\n      tag_48\n      jumpi\n      0x00\n      dup1\n      revert\n    tag_48:\n      pop\n      tag_49\n      tag_50\n      jump\t// in\n    tag_49:\n      mload(0x40)\n      tag_51\n      swap2\n      swap1\n      tag_18\n      jump\t// in\n    tag_51:\n      mload(0x40)\n      dup1\n      swap2\n      sub\n      swap1\n      return\n        /* \"oluwadunni.sol\":361:414  mapping(address => uint256) public override balanceOf */\n    tag_9:\n      callvalue\n      dup1\n      iszero\n      tag_52\n      jumpi\n      0x00\n      dup1\n      revert\n    tag_52:\n      pop\n      tag_53\n      0x04\n      dup1\n      calldatasize\n      sub\n      dup2\n      add\n      swap1\n      tag_54\n      swap2\n      swap1\n      tag_55\n      jump\t// in\n    tag_54:\n      tag_56\n      jump\t// in\n    tag_53:\n      mload(0x40)\n      tag_57\n      swap2\n      swap1\n      tag_18\n      jump\t// in\n    tag_57:\n      mload(0x40)\n      dup1\n      swap2\n      sub\n      swap1\n      return\n        /* \"oluwadunni.sol\":177:206  string public symbol = \"DUNS\" */\n    tag_10:\n      callvalue\n      dup1\n      iszero\n      tag_58\n      jumpi\n      0x00\n      dup1\n      revert\n    tag_58:\n      pop\n      tag_59\n      tag_60\n      jump\t// in\n    tag_59:\n      mload(0x40)\n      tag_61\n      swap2\n      swap1\n      tag_26\n      jump\t// in\n    tag_61:\n      mload(0x40)\n      dup1\n      swap2\n      sub\n      swap1\n      return\n        /* \"oluwadunni.sol\":475:686  function transfer(address _to, uint256 _amount) public override returns(bool){... */\n    tag_11:\n      callvalue\n      dup1\n      iszero\n      tag_62\n      jumpi\n      0x00\n      dup1\n      revert\n    tag_62:\n      pop\n      tag_63\n      0x04\n      dup1\n      calldatasize\n      sub\n      dup2\n      add\n      swap1\n      tag_64\n      swap2\n      swap1\n      tag_30\n      jump\t// in\n    tag_64:\n      tag_65\n      jump\t// in\n    tag_63:\n      mload(0x40)\n      tag_66\n      swap2\n      swap1\n      tag_33\n      jump\t// in\n    tag_66:\n      mload(0x40)\n      dup1\n      swap2\n      sub\n      swap1\n      return\n        /* \"oluwadunni.sol\":1504:1571  function deposit() public payable {... */\n    tag_12:\n      tag_67\n      tag_68\n      jump\t// in\n    tag_67:\n      stop\n        /* \"oluwadunni.sol\":688:851  function allowance(address _owner, address _spender) public view override returns(uint256){... */\n    tag_13:\n      callvalue\n      dup1\n      iszero\n      tag_69\n      jumpi\n      0x00\n      dup1\n      revert\n    tag_69:\n      pop\n      tag_70\n      0x04\n      dup1\n      calldatasize\n      sub\n      dup2\n      add\n      swap1\n      tag_71\n      swap2\n      swap1\n      tag_72\n      jump\t// in\n    tag_71:\n      tag_73\n      jump\t// in\n    tag_70:\n      mload(0x40)\n      tag_74\n      swap2\n      swap1\n      tag_18\n      jump\t// in\n    tag_74:\n      mload(0x40)\n      dup1\n      swap2\n      sub\n      swap1\n      return\n        /* \"oluwadunni.sol\":142:175  string public name = \"Oluwadunni\" */\n    tag_24:\n      0x00\n      dup1\n      sload\n      tag_75\n      swap1\n      tag_76\n      jump\t// in\n    tag_75:\n      dup1\n      0x1f\n      add\n      0x20\n      dup1\n      swap2\n      div\n      mul\n      0x20\n      add\n      mload(0x40)\n      swap1\n      dup2\n      add\n      0x40\n      mstore\n      dup1\n      swap3\n      swap2\n      swap1\n      dup2\n      dup2\n      mstore\n      0x20\n      add\n      dup3\n      dup1\n      sload\n      tag_77\n      swap1\n      tag_76\n      jump\t// in\n    tag_77:\n      dup1\n      iszero\n      tag_78\n      jumpi\n      dup1\n      0x1f\n      lt\n      tag_79\n      jumpi\n      0x0100\n      dup1\n      dup4\n      sload\n      div\n      mul\n      dup4\n      mstore\n      swap2\n      0x20\n      add\n      swap2\n      jump(tag_78)\n    tag_79:\n      dup3\n      add\n      swap2\n      swap1\n      0x00\n      mstore\n      keccak256(0x00, 0x20)\n      swap1\n    tag_80:\n      dup2\n      sload\n      dup2\n      mstore\n      swap1\n      0x01\n      add\n      swap1\n      0x20\n      add\n      dup1\n      dup4\n      gt\n      tag_80\n      jumpi\n      dup3\n      swap1\n      sub\n      0x1f\n      and\n      dup3\n      add\n      swap2\n    tag_78:\n      pop\n      pop\n      pop\n      pop\n      pop\n      dup2\n      jump\t// out\n        /* \"oluwadunni.sol\":853:1131  function approve(address _spender, uint256 _amount) public override returns(bool){... */\n    tag_31:\n        /* \"oluwadunni.sol\":929:933  bool */\n      0x00\n        /* \"oluwadunni.sol\":973:980  _amount */\n      dup2\n        /* \"oluwadunni.sol\":948:957  balanceOf */\n      0x04\n        /* \"oluwadunni.sol\":948:969  balanceOf[msg.sender] */\n      0x00\n        /* \"oluwadunni.sol\":958:968  msg.sender */\n      caller\n        /* \"oluwadunni.sol\":948:969  balanceOf[msg.sender] */\n      0xffffffffffffffffffffffffffffffffffffffff\n      and\n      0xffffffffffffffffffffffffffffffffffffffff\n      and\n      dup2\n      mstore\n      0x20\n      add\n      swap1\n      dup2\n      mstore\n      0x20\n      add\n      0x00\n      keccak256\n      sload\n        /* \"oluwadunni.sol\":948:980  balanceOf[msg.sender] >= _amount */\n      lt\n      iszero\n        /* \"oluwadunni.sol\":940:1014  require(balanceOf[msg.sender] >= _amount, \"You don't have enough balance\") */\n      tag_82\n      jumpi\n      mload(0x40)\n      0x08c379a000000000000000000000000000000000000000000000000000000000\n      dup2\n      mstore\n      0x04\n      add\n      tag_83\n      swap1\n      tag_84\n      jump\t// in\n    tag_83:\n      mload(0x40)\n      dup1\n      swap2\n      sub\n      swap1\n      revert\n    tag_82:\n        /* \"oluwadunni.sol\":1054:1061  _amount */\n      dup2\n        /* \"oluwadunni.sol\":1020:1028  approved */\n      0x05\n        /* \"oluwadunni.sol\":1020:1040  approved[msg.sender] */\n      0x00\n        /* \"oluwadunni.sol\":1029:1039  msg.sender */\n      caller\n        /* \"oluwadunni.sol\":1020:1040  approved[msg.sender] */\n      0xffffffffffffffffffffffffffffffffffffffff\n      and\n      0xffffffffffffffffffffffffffffffffffffffff\n      and\n      dup2\n      mstore\n      0x20\n      add\n      swap1\n      dup2\n      mstore\n      0x20\n      add\n      0x00\n      keccak256\n        /* \"oluwadunni.sol\":1020:1050  approved[msg.sender][_spender] */\n      0x00\n        /* \"oluwadunni.sol\":1041:1049  _spender */\n      dup6\n        /* \"oluwadunni.sol\":1020:1050  approved[msg.sender][_spender] */\n      0xffffffffffffffffffffffffffffffffffffffff\n      and\n      0xffffffffffffffffffffffffffffffffffffffff\n      and\n      dup2\n      mstore\n      0x20\n      add\n      swap1\n      dup2\n      mstore\n      0x20\n      add\n      0x00\n      keccak256\n      0x00\n        /* \"oluwadunni.sol\":1020:1061  approved[msg.sender][_spender] += _amount */\n      dup3\n      dup3\n      sload\n      tag_85\n      swap2\n      swap1\n      tag_86\n      jump\t// in\n    tag_85:\n      swap3\n      pop\n      pop\n      dup2\n      swap1\n      sstore\n      pop\n        /* \"oluwadunni.sol\":1093:1101  _spender */\n      dup3\n        /* \"oluwadunni.sol\":1072:1111  Approval(msg.sender, _spender, _amount) */\n      0xffffffffffffffffffffffffffffffffffffffff\n      and\n        /* \"oluwadunni.sol\":1081:1091  msg.sender */\n      caller\n        /* \"oluwadunni.sol\":1072:1111  Approval(msg.sender, _spender, _amount) */\n      0xffffffffffffffffffffffffffffffffffffffff\n      and\n      0x8c5be1e5ebec7d5bd14f71427d1e84f3dd0314c0f7b2291e5b200ac8c7c3b925\n        /* \"oluwadunni.sol\":1103:1110  _amount */\n      dup5\n        /* \"oluwadunni.sol\":1072:1111  Approval(msg.sender, _spender, _amount) */\n      mload(0x40)\n      tag_87\n      swap2\n      swap1\n      tag_18\n      jump\t// in\n    tag_87:\n      mload(0x40)\n      dup1\n      swap2\n      sub\n      swap1\n      log3\n        /* \"oluwadunni.sol\":1124:1128  true */\n      0x01\n        /* \"oluwadunni.sol\":1117:1128  return true */\n      swap1\n      pop\n        /* \"oluwadunni.sol\":853:1131  function approve(address _spender, uint256 _amount) public override returns(bool){... */\n      swap3\n      swap2\n      pop\n      pop\n      jump\t// out\n        /* \"oluwadunni.sol\":1573:1661  function getBalance()public view returns(uint256) {... */\n    tag_36:\n        /* \"oluwadunni.sol\":1614:1621  uint256 */\n      0x00\n        /* \"oluwadunni.sol\":1636:1658  address (this).balance */\n      selfbalance\n        /* \"oluwadunni.sol\":1629:1658  return address (this).balance */\n      swap1\n      pop\n        /* \"oluwadunni.sol\":1573:1661  function getBalance()public view returns(uint256) {... */\n      swap1\n      jump\t// out\n        /* \"oluwadunni.sol\":235:299  uint public override totalSupply = 1000000000 * (10 ** decimals) */\n    tag_40:\n      sload(0x03)\n      dup2\n      jump\t// out\n        /* \"oluwadunni.sol\":1133:1473  function transferFrom(address _from, address _to, uint256 _amount) public override returns(bool){... */\n    tag_46:\n        /* \"oluwadunni.sol\":1224:1228  bool */\n      0x00\n        /* \"oluwadunni.sol\":1274:1281  _amount */\n      dup2\n        /* \"oluwadunni.sol\":1243:1251  approved */\n      0x05\n        /* \"oluwadunni.sol\":1243:1258  approved[_from] */\n      0x00\n        /* \"oluwadunni.sol\":1252:1257  _from */\n      dup7\n        /* \"oluwadunni.sol\":1243:1258  approved[_from] */\n      0xffffffffffffffffffffffffffffffffffffffff\n      and\n      0xffffffffffffffffffffffffffffffffffffffff\n      and\n      dup2\n      mstore\n      0x20\n      add\n      swap1\n      dup2\n      mstore\n      0x20\n      add\n      0x00\n      keccak256\n        /* \"oluwadunni.sol\":1243:1270  approved[_from][msg.sender] */\n      0x00\n        /* \"oluwadunni.sol\":1259:1269  msg.sender */\n      caller\n        /* \"oluwadunni.sol\":1243:1270  approved[_from][msg.sender] */\n      0xffffffffffffffffffffffffffffffffffffffff\n      and\n      0xffffffffffffffffffffffffffffffffffffffff\n      and\n      dup2\n      mstore\n      0x20\n      add\n      swap1\n      dup2\n      mstore\n      0x20\n      add\n      0x00\n      keccak256\n      sload\n        /* \"oluwadunni.sol\":1243:1281  approved[_from][msg.sender] >= _amount */\n      lt\n      iszero\n        /* \"oluwadunni.sol\":1235:1305  require(approved[_from][msg.sender] >= _amount, \"Amount not approved\") */\n      tag_90\n      jumpi\n      mload(0x40)\n      0x08c379a000000000000000000000000000000000000000000000000000000000\n      dup2\n      mstore\n      0x04\n      add\n      tag_91\n      swap1\n      tag_92\n      jump\t// in\n    tag_91:\n      mload(0x40)\n      dup1\n      swap2\n      sub\n      swap1\n      revert\n    tag_90:\n        /* \"oluwadunni.sol\":1342:1349  _amount */\n      dup2\n        /* \"oluwadunni.sol\":1311:1319  approved */\n      0x05\n        /* \"oluwadunni.sol\":1311:1326  approved[_from] */\n      0x00\n        /* \"oluwadunni.sol\":1320:1325  _from */\n      dup7\n        /* \"oluwadunni.sol\":1311:1326  approved[_from] */\n      0xffffffffffffffffffffffffffffffffffffffff\n      and\n      0xffffffffffffffffffffffffffffffffffffffff\n      and\n      dup2\n      mstore\n      0x20\n      add\n      swap1\n      dup2\n      mstore\n      0x20\n      add\n      0x00\n      keccak256\n        /* \"oluwadunni.sol\":1311:1338  approved[_from][msg.sender] */\n      0x00\n        /* \"oluwadunni.sol\":1327:1337  msg.sender */\n      caller\n        /* \"oluwadunni.sol\":1311:1338  approved[_from][msg.sender] */\n      0xffffffffffffffffffffffffffffffffffffffff\n      and\n      0xffffffffffffffffffffffffffffffffffffffff\n      and\n      dup2\n      mstore\n      0x20\n      add\n      swap1\n      dup2\n      mstore\n      0x20\n      add\n      0x00\n      keccak256\n      0x00\n        /* \"oluwadunni.sol\":1311:1349  approved[_from][msg.sender] -= _amount */\n      dup3\n      dup3\n      sload\n      tag_93\n      swap2\n      swap1\n      tag_94\n      jump\t// in\n    tag_93:\n      swap3\n      pop\n      pop\n      dup2\n      swap1\n      sstore\n      pop\n        /* \"oluwadunni.sol\":1375:1382  _amount */\n      dup2\n        /* \"oluwadunni.sol\":1355:1364  balanceOf */\n      0x04\n        /* \"oluwadunni.sol\":1355:1371  balanceOf[_from] */\n      0x00\n        /* \"oluwadunni.sol\":1365:1370  _from */\n      dup7\n        /* \"oluwadunni.sol\":1355:1371  balanceOf[_from] */\n      0xffffffffffffffffffffffffffffffffffffffff\n      and\n      0xffffffffffffffffffffffffffffffffffffffff\n      and\n      dup2\n      mstore\n      0x20\n      add\n      swap1\n      dup2\n      mstore\n      0x20\n      add\n      0x00\n      keccak256\n      0x00\n        /* \"oluwadunni.sol\":1355:1382  balanceOf[_from] -= _amount */\n      dup3\n      dup3\n      sload\n      tag_95\n      swap2\n      swap1\n      tag_94\n      jump\t// in\n    tag_95:\n      swap3\n      pop\n      pop\n      dup2\n      swap1\n      sstore\n      pop\n        /* \"oluwadunni.sol\":1406:1413  _amount */\n      dup2\n        /* \"oluwadunni.sol\":1388:1397  balanceOf */\n      0x04\n        /* \"oluwadunni.sol\":1388:1402  balanceOf[_to] */\n      0x00\n        /* \"oluwadunni.sol\":1398:1401  _to */\n      dup6\n        /* \"oluwadunni.sol\":1388:1402  balanceOf[_to] */\n      0xffffffffffffffffffffffffffffffffffffffff\n      and\n      0xffffffffffffffffffffffffffffffffffffffff\n      and\n      dup2\n      mstore\n      0x20\n      add\n      swap1\n      dup2\n      mstore\n      0x20\n      add\n      0x00\n      keccak256\n      0x00\n        /* \"oluwadunni.sol\":1388:1413  balanceOf[_to] += _amount */\n      dup3\n      dup3\n      sload\n      tag_96\n      swap2\n      swap1\n      tag_86\n      jump\t// in\n    tag_96:\n      swap3\n      pop\n      pop\n      dup2\n      swap1\n      sstore\n      pop\n        /* \"oluwadunni.sol\":1440:1443  _to */\n      dup3\n        /* \"oluwadunni.sol\":1424:1453  Transfer(_from, _to, _amount) */\n      0xffffffffffffffffffffffffffffffffffffffff\n      and\n        /* \"oluwadunni.sol\":1433:1438  _from */\n      dup5\n        /* \"oluwadunni.sol\":1424:1453  Transfer(_from, _to, _amount) */\n      0xffffffffffffffffffffffffffffffffffffffff\n      and\n      0xddf252ad1be2c89b69c2b068fc378daa952ba7f163c4a11628f55a4df523b3ef\n        /* \"oluwadunni.sol\":1445:1452  _amount */\n      dup5\n        /* \"oluwadunni.sol\":1424:1453  Transfer(_from, _to, _amount) */\n      mload(0x40)\n      tag_97\n      swap2\n      swap1\n      tag_18\n      jump\t// in\n    tag_97:\n      mload(0x40)\n      dup1\n      swap2\n      sub\n      swap1\n      log3\n        /* \"oluwadunni.sol\":1466:1470  true */\n      0x01\n        /* \"oluwadunni.sol\":1459:1470  return true */\n      swap1\n      pop\n        /* \"oluwadunni.sol\":1133:1473  function transferFrom(address _from, address _to, uint256 _amount) public override returns(bool){... */\n      swap4\n      swap3\n      pop\n      pop\n      pop\n      jump\t// out\n        /* \"oluwadunni.sol\":208:233  uint public decimals = 18 */\n    tag_50:\n      sload(0x02)\n      dup2\n      jump\t// out\n        /* \"oluwadunni.sol\":361:414  mapping(address => uint256) public override balanceOf */\n    tag_56:\n      mstore(0x20, 0x04)\n      dup1\n      0x00\n      mstore\n      keccak256(0x00, 0x40)\n      0x00\n      swap2\n      pop\n      swap1\n      pop\n      sload\n      dup2\n      jump\t// out\n        /* \"oluwadunni.sol\":177:206  string public symbol = \"DUNS\" */\n    tag_60:\n      0x01\n      dup1\n      sload\n      tag_98\n      swap1\n      tag_76\n      jump\t// in\n    tag_98:\n      dup1\n      0x1f\n      add\n      0x20\n      dup1\n      swap2\n      div\n      mul\n      0x20\n      add\n      mload(0x40)\n      swap1\n      dup2\n      add\n      0x40\n      mstore\n      dup1\n      swap3\n      swap2\n      swap1\n      dup2\n      dup2\n      mstore\n      0x20\n      add\n      dup3\n      dup1\n      sload\n      tag_99\n      swap1\n      tag_76\n      jump\t// in\n    tag_99:\n      dup1\n      iszero\n      tag_100\n      jumpi\n      dup1\n      0x1f\n      lt\n      tag_101\n      jumpi\n      0x0100\n      dup1\n      dup4\n      sload\n      div\n      mul\n      dup4\n      mstore\n      swap2\n      0x20\n      add\n      swap2\n      jump(tag_100)\n    tag_101:\n      dup3\n      add\n      swap2\n      swap1\n      0x00\n      mstore\n      keccak256(0x00, 0x20)\n      swap1\n    tag_102:\n      dup2\n      sload\n      dup2\n      mstore\n      swap1\n      0x01\n      add\n      swap1\n      0x20\n      add\n      dup1\n      dup4\n      gt\n      tag_102\n      jumpi\n      dup3\n      swap1\n      sub\n      0x1f\n      and\n      dup3\n      add\n      swap2\n    tag_100:\n      pop\n      pop\n      pop\n      pop\n      pop\n      dup2\n      jump\t// out\n        /* \"oluwadunni.sol\":475:686  function transfer(address _to, uint256 _amount) public override returns(bool){... */\n    tag_65:\n        /* \"oluwadunni.sol\":547:551  bool */\n      0x00\n        /* \"oluwadunni.sol\":583:590  _amount */\n      dup2\n        /* \"oluwadunni.sol\":558:567  balanceOf */\n      0x04\n        /* \"oluwadunni.sol\":558:579  balanceOf[msg.sender] */\n      0x00\n        /* \"oluwadunni.sol\":568:578  msg.sender */\n      caller\n        /* \"oluwadunni.sol\":558:579  balanceOf[msg.sender] */\n      0xffffffffffffffffffffffffffffffffffffffff\n      and\n      0xffffffffffffffffffffffffffffffffffffffff\n      and\n      dup2\n      mstore\n      0x20\n      add\n      swap1\n      dup2\n      mstore\n      0x20\n      add\n      0x00\n      keccak256\n      0x00\n        /* \"oluwadunni.sol\":558:590  balanceOf[msg.sender] -= _amount */\n      dup3\n      dup3\n      sload\n      tag_104\n      swap2\n      swap1\n      tag_94\n      jump\t// in\n    tag_104:\n      swap3\n      pop\n      pop\n      dup2\n      swap1\n      sstore\n      pop\n        /* \"oluwadunni.sol\":614:621  _amount */\n      dup2\n        /* \"oluwadunni.sol\":596:605  balanceOf */\n      0x04\n        /* \"oluwadunni.sol\":596:610  balanceOf[_to] */\n      0x00\n        /* \"oluwadunni.sol\":606:609  _to */\n      dup6\n        /* \"oluwadunni.sol\":596:610  balanceOf[_to] */\n      0xffffffffffffffffffffffffffffffffffffffff\n      and\n      0xffffffffffffffffffffffffffffffffffffffff\n      and\n      dup2\n      mstore\n      0x20\n      add\n      swap1\n      dup2\n      mstore\n      0x20\n      add\n      0x00\n      keccak256\n      0x00\n        /* \"oluwadunni.sol\":596:621  balanceOf[_to] += _amount */\n      dup3\n      dup3\n      sload\n      tag_105\n      swap2\n      swap1\n      tag_86\n      jump\t// in\n    tag_105:\n      swap3\n      pop\n      pop\n      dup2\n      swap1\n      sstore\n      pop\n        /* \"oluwadunni.sol\":653:656  _to */\n      dup3\n        /* \"oluwadunni.sol\":632:666  Transfer(msg.sender, _to, _amount) */\n      0xffffffffffffffffffffffffffffffffffffffff\n      and\n        /* \"oluwadunni.sol\":641:651  msg.sender */\n      caller\n        /* \"oluwadunni.sol\":632:666  Transfer(msg.sender, _to, _amount) */\n      0xffffffffffffffffffffffffffffffffffffffff\n      and\n      0xddf252ad1be2c89b69c2b068fc378daa952ba7f163c4a11628f55a4df523b3ef\n        /* \"oluwadunni.sol\":658:665  _amount */\n      dup5\n        /* \"oluwadunni.sol\":632:666  Transfer(msg.sender, _to, _amount) */\n      mload(0x40)\n      tag_106\n      swap2\n      swap1\n      tag_18\n      jump\t// in\n    tag_106:\n      mload(0x40)\n      dup1\n      swap2\n      sub\n      swap1\n      log3\n        /* \"oluwadunni.sol\":679:683  true */\n      0x01\n        /* \"oluwadunni.sol\":672:683  return true */\n      swap1\n      pop\n        /* \"oluwadunni.sol\":475:686  function transfer(address _to, uint256 _amount) public override returns(bool){... */\n      swap3\n      swap2\n      pop\n      pop\n      jump\t// out\n        /* \"oluwadunni.sol\":1504:1571  function deposit() public payable {... */\n    tag_68:\n        /* \"oluwadunni.sol\":1549:1568  Received(msg.value) */\n      0xa8142743f8f70a4c26f3691cf4ed59718381fb2f18070ec52be1f1022d855557\n        /* \"oluwadunni.sol\":1558:1567  msg.value */\n      callvalue\n        /* \"oluwadunni.sol\":1549:1568  Received(msg.value) */\n      mload(0x40)\n      tag_108\n      swap2\n      swap1\n      tag_18\n      jump\t// in\n    tag_108:\n      mload(0x40)\n      dup1\n      swap2\n      sub\n      swap1\n      log1\n        /* \"oluwadunni.sol\":1504:1571  function deposit() public payable {... */\n      jump\t// out\n        /* \"oluwadunni.sol\":688:851  function allowance(address _owner, address _spender) public view override returns(uint256){... */\n    tag_73:\n        /* \"oluwadunni.sol\":770:777  uint256 */\n      0x00\n        /* \"oluwadunni.sol\":784:799  uint256 _amount */\n      dup1\n        /* \"oluwadunni.sol\":802:810  approved */\n      0x05\n        /* \"oluwadunni.sol\":802:818  approved[_owner] */\n      0x00\n        /* \"oluwadunni.sol\":811:817  _owner */\n      dup6\n        /* \"oluwadunni.sol\":802:818  approved[_owner] */\n      0xffffffffffffffffffffffffffffffffffffffff\n      and\n      0xffffffffffffffffffffffffffffffffffffffff\n      and\n      dup2\n      mstore\n      0x20\n      add\n      swap1\n      dup2\n      mstore\n      0x20\n      add\n      0x00\n      keccak256\n        /* \"oluwadunni.sol\":802:828  approved[_owner][_spender] */\n      0x00\n        /* \"oluwadunni.sol\":819:827  _spender */\n      dup5\n        /* \"oluwadunni.sol\":802:828  approved[_owner][_spender] */\n      0xffffffffffffffffffffffffffffffffffffffff\n      and\n      0xffffffffffffffffffffffffffffffffffffffff\n      and\n      dup2\n      mstore\n      0x20\n      add\n      swap1\n      dup2\n      mstore\n      0x20\n      add\n      0x00\n      keccak256\n      sload\n        /* \"oluwadunni.sol\":784:828  uint256 _amount = approved[_owner][_spender] */\n      swap1\n      pop\n        /* \"oluwadunni.sol\":841:848  _amount */\n      dup1\n        /* \"oluwadunni.sol\":834:848  return _amount */\n      swap2\n      pop\n      pop\n        /* \"oluwadunni.sol\":688:851  function allowance(address _owner, address _spender) public view override returns(uint256){... */\n      swap3\n      swap2\n      pop\n      pop\n      jump\t// out\n        /* \"#utility.yul\":7:146   */\n    tag_111:\n        /* \"#utility.yul\":53:58   */\n      0x00\n        /* \"#utility.yul\":91:97   */\n      dup2\n        /* \"#utility.yul\":78:98   */\n      calldataload\n        /* \"#utility.yul\":69:98   */\n      swap1\n      pop\n        /* \"#utility.yul\":107:140   */\n      tag_113\n        /* \"#utility.yul\":134:139   */\n      dup2\n        /* \"#utility.yul\":107:140   */\n      tag_114\n      jump\t// in\n    tag_113:\n        /* \"#utility.yul\":7:146   */\n      swap3\n      swap2\n      pop\n      pop\n      jump\t// out\n        /* \"#utility.yul\":152:291   */\n    tag_115:\n        /* \"#utility.yul\":198:203   */\n      0x00\n        /* \"#utility.yul\":236:242   */\n      dup2\n        /* \"#utility.yul\":223:243   */\n      calldataload\n        /* \"#utility.yul\":214:243   */\n      swap1\n      pop\n        /* \"#utility.yul\":252:285   */\n      tag_117\n        /* \"#utility.yul\":279:284   */\n      dup2\n        /* \"#utility.yul\":252:285   */\n      tag_118\n      jump\t// in\n    tag_117:\n        /* \"#utility.yul\":152:291   */\n      swap3\n      swap2\n      pop\n      pop\n      jump\t// out\n        /* \"#utility.yul\":297:626   */\n    tag_55:\n        /* \"#utility.yul\":356:362   */\n      0x00\n        /* \"#utility.yul\":405:407   */\n      0x20\n        /* \"#utility.yul\":393:402   */\n      dup3\n        /* \"#utility.yul\":384:391   */\n      dup5\n        /* \"#utility.yul\":380:403   */\n      sub\n        /* \"#utility.yul\":376:408   */\n      slt\n        /* \"#utility.yul\":373:492   */\n      iszero\n      tag_120\n      jumpi\n        /* \"#utility.yul\":411:490   */\n      tag_121\n      tag_122\n      jump\t// in\n    tag_121:\n        /* \"#utility.yul\":373:492   */\n    tag_120:\n        /* \"#utility.yul\":531:532   */\n      0x00\n        /* \"#utility.yul\":556:609   */\n      tag_123\n        /* \"#utility.yul\":601:608   */\n      dup5\n        /* \"#utility.yul\":592:598   */\n      dup3\n        /* \"#utility.yul\":581:590   */\n      dup6\n        /* \"#utility.yul\":577:599   */\n      add\n        /* \"#utility.yul\":556:609   */\n      tag_111\n      jump\t// in\n    tag_123:\n        /* \"#utility.yul\":546:609   */\n      swap2\n      pop\n        /* \"#utility.yul\":502:619   */\n      pop\n        /* \"#utility.yul\":297:626   */\n      swap3\n      swap2\n      pop\n      pop\n      jump\t// out\n        /* \"#utility.yul\":632:1106   */\n    tag_72:\n        /* \"#utility.yul\":700:706   */\n      0x00\n        /* \"#utility.yul\":708:714   */\n      dup1\n        /* \"#utility.yul\":757:759   */\n      0x40\n        /* \"#utility.yul\":745:754   */\n      dup4\n        /* \"#utility.yul\":736:743   */\n      dup6\n        /* \"#utility.yul\":732:755   */\n      sub\n        /* \"#utility.yul\":728:760   */\n      slt\n        /* \"#utility.yul\":725:844   */\n      iszero\n      tag_125\n      jumpi\n        /* \"#utility.yul\":763:842   */\n      tag_126\n      tag_122\n      jump\t// in\n    tag_126:\n        /* \"#utility.yul\":725:844   */\n    tag_125:\n        /* \"#utility.yul\":883:884   */\n      0x00\n        /* \"#utility.yul\":908:961   */\n      tag_127\n        /* \"#utility.yul\":953:960   */\n      dup6\n        /* \"#utility.yul\":944:950   */\n      dup3\n        /* \"#utility.yul\":933:942   */\n      dup7\n        /* \"#utility.yul\":929:951   */\n      add\n        /* \"#utility.yul\":908:961   */\n      tag_111\n      jump\t// in\n    tag_127:\n        /* \"#utility.yul\":898:961   */\n      swap3\n      pop\n        /* \"#utility.yul\":854:971   */\n      pop\n        /* \"#utility.yul\":1010:1012   */\n      0x20\n        /* \"#utility.yul\":1036:1089   */\n      tag_128\n        /* \"#utility.yul\":1081:1088   */\n      dup6\n        /* \"#utility.yul\":1072:1078   */\n      dup3\n        /* \"#utility.yul\":1061:1070   */\n      dup7\n        /* \"#utility.yul\":1057:1079   */\n      add\n        /* \"#utility.yul\":1036:1089   */\n      tag_111\n      jump\t// in\n    tag_128:\n        /* \"#utility.yul\":1026:1089   */\n      swap2\n      pop\n        /* \"#utility.yul\":981:1099   */\n      pop\n        /* \"#utility.yul\":632:1106   */\n      swap3\n      pop\n      swap3\n      swap1\n      pop\n      jump\t// out\n        /* \"#utility.yul\":1112:1731   */\n    tag_45:\n        /* \"#utility.yul\":1189:1195   */\n      0x00\n        /* \"#utility.yul\":1197:1203   */\n      dup1\n        /* \"#utility.yul\":1205:1211   */\n      0x00\n        /* \"#utility.yul\":1254:1256   */\n      0x60\n        /* \"#utility.yul\":1242:1251   */\n      dup5\n        /* \"#utility.yul\":1233:1240   */\n      dup7\n        /* \"#utility.yul\":1229:1252   */\n      sub\n        /* \"#utility.yul\":1225:1257   */\n      slt\n        /* \"#utility.yul\":1222:1341   */\n      iszero\n      tag_130\n      jumpi\n        /* \"#utility.yul\":1260:1339   */\n      tag_131\n      tag_122\n      jump\t// in\n    tag_131:\n        /* \"#utility.yul\":1222:1341   */\n    tag_130:\n        /* \"#utility.yul\":1380:1381   */\n      0x00\n        /* \"#utility.yul\":1405:1458   */\n      tag_132\n        /* \"#utility.yul\":1450:1457   */\n      dup7\n        /* \"#utility.yul\":1441:1447   */\n      dup3\n        /* \"#utility.yul\":1430:1439   */\n      dup8\n        /* \"#utility.yul\":1426:1448   */\n      add\n        /* \"#utility.yul\":1405:1458   */\n      tag_111\n      jump\t// in\n    tag_132:\n        /* \"#utility.yul\":1395:1458   */\n      swap4\n      pop\n        /* \"#utility.yul\":1351:1468   */\n      pop\n        /* \"#utility.yul\":1507:1509   */\n      0x20\n        /* \"#utility.yul\":1533:1586   */\n      tag_133\n        /* \"#utility.yul\":1578:1585   */\n      dup7\n        /* \"#utility.yul\":1569:1575   */\n      dup3\n        /* \"#utility.yul\":1558:1567   */\n      dup8\n        /* \"#utility.yul\":1554:1576   */\n      add\n        /* \"#utility.yul\":1533:1586   */\n      tag_111\n      jump\t// in\n    tag_133:\n        /* \"#utility.yul\":1523:1586   */\n      swap3\n      pop\n        /* \"#utility.yul\":1478:1596   */\n      pop\n        /* \"#utility.yul\":1635:1637   */\n      0x40\n        /* \"#utility.yul\":1661:1714   */\n      tag_134\n        /* \"#utility.yul\":1706:1713   */\n      dup7\n        /* \"#utility.yul\":1697:1703   */\n      dup3\n        /* \"#utility.yul\":1686:1695   */\n      dup8\n        /* \"#utility.yul\":1682:1704   */\n      add\n        /* \"#utility.yul\":1661:1714   */\n      tag_115\n      jump\t// in\n    tag_134:\n        /* \"#utility.yul\":1651:1714   */\n      swap2\n      pop\n        /* \"#utility.yul\":1606:1724   */\n      pop\n        /* \"#utility.yul\":1112:1731   */\n      swap3\n      pop\n      swap3\n      pop\n      swap3\n      jump\t// out\n        /* \"#utility.yul\":1737:2211   */\n    tag_30:\n        /* \"#utility.yul\":1805:1811   */\n      0x00\n        /* \"#utility.yul\":1813:1819   */\n      dup1\n        /* \"#utility.yul\":1862:1864   */\n      0x40\n        /* \"#utility.yul\":1850:1859   */\n      dup4\n        /* \"#utility.yul\":1841:1848   */\n      dup6\n        /* \"#utility.yul\":1837:1860   */\n      sub\n        /* \"#utility.yul\":1833:1865   */\n      slt\n        /* \"#utility.yul\":1830:1949   */\n      iszero\n      tag_136\n      jumpi\n        /* \"#utility.yul\":1868:1947   */\n      tag_137\n      tag_122\n      jump\t// in\n    tag_137:\n        /* \"#utility.yul\":1830:1949   */\n    tag_136:\n        /* \"#utility.yul\":1988:1989   */\n      0x00\n        /* \"#utility.yul\":2013:2066   */\n      tag_138\n        /* \"#utility.yul\":2058:2065   */\n      dup6\n        /* \"#utility.yul\":2049:2055   */\n      dup3\n        /* \"#utility.yul\":2038:2047   */\n      dup7\n        /* \"#utility.yul\":2034:2056   */\n      add\n        /* \"#utility.yul\":2013:2066   */\n      tag_111\n      jump\t// in\n    tag_138:\n        /* \"#utility.yul\":2003:2066   */\n      swap3\n      pop\n        /* \"#utility.yul\":1959:2076   */\n      pop\n        /* \"#utility.yul\":2115:2117   */\n      0x20\n        /* \"#utility.yul\":2141:2194   */\n      tag_139\n        /* \"#utility.yul\":2186:2193   */\n      dup6\n        /* \"#utility.yul\":2177:2183   */\n      dup3\n        /* \"#utility.yul\":2166:2175   */\n      dup7\n        /* \"#utility.yul\":2162:2184   */\n      add\n        /* \"#utility.yul\":2141:2194   */\n      tag_115\n      jump\t// in\n    tag_139:\n        /* \"#utility.yul\":2131:2194   */\n      swap2\n      pop\n        /* \"#utility.yul\":2086:2204   */\n      pop\n        /* \"#utility.yul\":1737:2211   */\n      swap3\n      pop\n      swap3\n      swap1\n      pop\n      jump\t// out\n        /* \"#utility.yul\":2217:2326   */\n    tag_140:\n        /* \"#utility.yul\":2298:2319   */\n      tag_142\n        /* \"#utility.yul\":2313:2318   */\n      dup2\n        /* \"#utility.yul\":2298:2319   */\n      tag_143\n      jump\t// in\n    tag_142:\n        /* \"#utility.yul\":2293:2296   */\n      dup3\n        /* \"#utility.yul\":2286:2320   */\n      mstore\n        /* \"#utility.yul\":2217:2326   */\n      pop\n      pop\n      jump\t// out\n        /* \"#utility.yul\":2332:2696   */\n    tag_144:\n        /* \"#utility.yul\":2420:2423   */\n      0x00\n        /* \"#utility.yul\":2448:2487   */\n      tag_146\n        /* \"#utility.yul\":2481:2486   */\n      dup3\n        /* \"#utility.yul\":2448:2487   */\n      tag_147\n      jump\t// in\n    tag_146:\n        /* \"#utility.yul\":2503:2574   */\n      tag_148\n        /* \"#utility.yul\":2567:2573   */\n      dup2\n        /* \"#utility.yul\":2562:2565   */\n      dup6\n        /* \"#utility.yul\":2503:2574   */\n      tag_149\n      jump\t// in\n    tag_148:\n        /* \"#utility.yul\":2496:2574   */\n      swap4\n      pop\n        /* \"#utility.yul\":2583:2635   */\n      tag_150\n        /* \"#utility.yul\":2628:2634   */\n      dup2\n        /* \"#utility.yul\":2623:2626   */\n      dup6\n        /* \"#utility.yul\":2616:2620   */\n      0x20\n        /* \"#utility.yul\":2609:2614   */\n      dup7\n        /* \"#utility.yul\":2605:2621   */\n      add\n        /* \"#utility.yul\":2583:2635   */\n      tag_151\n      jump\t// in\n    tag_150:\n        /* \"#utility.yul\":2660:2689   */\n      tag_152\n        /* \"#utility.yul\":2682:2688   */\n      dup2\n        /* \"#utility.yul\":2660:2689   */\n      tag_153\n      jump\t// in\n    tag_152:\n        /* \"#utility.yul\":2655:2658   */\n      dup5\n        /* \"#utility.yul\":2651:2690   */\n      add\n        /* \"#utility.yul\":2644:2690   */\n      swap2\n      pop\n        /* \"#utility.yul\":2424:2696   */\n      pop\n        /* \"#utility.yul\":2332:2696   */\n      swap3\n      swap2\n      pop\n      pop\n      jump\t// out\n        /* \"#utility.yul\":2702:3068   */\n    tag_154:\n        /* \"#utility.yul\":2844:2847   */\n      0x00\n        /* \"#utility.yul\":2865:2932   */\n      tag_156\n        /* \"#utility.yul\":2929:2931   */\n      0x1d\n        /* \"#utility.yul\":2924:2927   */\n      dup4\n        /* \"#utility.yul\":2865:2932   */\n      tag_149\n      jump\t// in\n    tag_156:\n        /* \"#utility.yul\":2858:2932   */\n      swap2\n      pop\n        /* \"#utility.yul\":2941:3034   */\n      tag_157\n        /* \"#utility.yul\":3030:3033   */\n      dup3\n        /* \"#utility.yul\":2941:3034   */\n      tag_158\n      jump\t// in\n    tag_157:\n        /* \"#utility.yul\":3059:3061   */\n      0x20\n        /* \"#utility.yul\":3054:3057   */\n      dup3\n        /* \"#utility.yul\":3050:3062   */\n      add\n        /* \"#utility.yul\":3043:3062   */\n      swap1\n      pop\n        /* \"#utility.yul\":2702:3068   */\n      swap2\n      swap1\n      pop\n      jump\t// out\n        /* \"#utility.yul\":3074:3440   */\n    tag_159:\n        /* \"#utility.yul\":3216:3219   */\n      0x00\n        /* \"#utility.yul\":3237:3304   */\n      tag_161\n        /* \"#utility.yul\":3301:3303   */\n      0x13\n        /* \"#utility.yul\":3296:3299   */\n      dup4\n        /* \"#utility.yul\":3237:3304   */\n      tag_149\n      jump\t// in\n    tag_161:\n        /* \"#utility.yul\":3230:3304   */\n      swap2\n      pop\n        /* \"#utility.yul\":3313:3406   */\n      tag_162\n        /* \"#utility.yul\":3402:3405   */\n      dup3\n        /* \"#utility.yul\":3313:3406   */\n      tag_163\n      jump\t// in\n    tag_162:\n        /* \"#utility.yul\":3431:3433   */\n      0x20\n        /* \"#utility.yul\":3426:3429   */\n      dup3\n        /* \"#utility.yul\":3422:3434   */\n      add\n        /* \"#utility.yul\":3415:3434   */\n      swap1\n      pop\n        /* \"#utility.yul\":3074:3440   */\n      swap2\n      swap1\n      pop\n      jump\t// out\n        /* \"#utility.yul\":3446:3564   */\n    tag_164:\n        /* \"#utility.yul\":3533:3557   */\n      tag_166\n        /* \"#utility.yul\":3551:3556   */\n      dup2\n        /* \"#utility.yul\":3533:3557   */\n      tag_167\n      jump\t// in\n    tag_166:\n        /* \"#utility.yul\":3528:3531   */\n      dup3\n        /* \"#utility.yul\":3521:3558   */\n      mstore\n        /* \"#utility.yul\":3446:3564   */\n      pop\n      pop\n      jump\t// out\n        /* \"#utility.yul\":3570:3780   */\n    tag_33:\n        /* \"#utility.yul\":3657:3661   */\n      0x00\n        /* \"#utility.yul\":3695:3697   */\n      0x20\n        /* \"#utility.yul\":3684:3693   */\n      dup3\n        /* \"#utility.yul\":3680:3698   */\n      add\n        /* \"#utility.yul\":3672:3698   */\n      swap1\n      pop\n        /* \"#utility.yul\":3708:3773   */\n      tag_169\n        /* \"#utility.yul\":3770:3771   */\n      0x00\n        /* \"#utility.yul\":3759:3768   */\n      dup4\n        /* \"#utility.yul\":3755:3772   */\n      add\n        /* \"#utility.yul\":3746:3752   */\n      dup5\n        /* \"#utility.yul\":3708:3773   */\n      tag_140\n      jump\t// in\n    tag_169:\n        /* \"#utility.yul\":3570:3780   */\n      swap3\n      swap2\n      pop\n      pop\n      jump\t// out\n        /* \"#utility.yul\":3786:4099   */\n    tag_26:\n        /* \"#utility.yul\":3899:3903   */\n      0x00\n        /* \"#utility.yul\":3937:3939   */\n      0x20\n        /* \"#utility.yul\":3926:3935   */\n      dup3\n        /* \"#utility.yul\":3922:3940   */\n      add\n        /* \"#utility.yul\":3914:3940   */\n      swap1\n      pop\n        /* \"#utility.yul\":3986:3995   */\n      dup2\n        /* \"#utility.yul\":3980:3984   */\n      dup2\n        /* \"#utility.yul\":3976:3996   */\n      sub\n        /* \"#utility.yul\":3972:3973   */\n      0x00\n        /* \"#utility.yul\":3961:3970   */\n      dup4\n        /* \"#utility.yul\":3957:3974   */\n      add\n        /* \"#utility.yul\":3950:3997   */\n      mstore\n        /* \"#utility.yul\":4014:4092   */\n      tag_171\n        /* \"#utility.yul\":4087:4091   */\n      dup2\n        /* \"#utility.yul\":4078:4084   */\n      dup5\n        /* \"#utility.yul\":4014:4092   */\n      tag_144\n      jump\t// in\n    tag_171:\n        /* \"#utility.yul\":4006:4092   */\n      swap1\n      pop\n        /* \"#utility.yul\":3786:4099   */\n      swap3\n      swap2\n      pop\n      pop\n      jump\t// out\n        /* \"#utility.yul\":4105:4524   */\n    tag_84:\n        /* \"#utility.yul\":4271:4275   */\n      0x00\n        /* \"#utility.yul\":4309:4311   */\n      0x20\n        /* \"#utility.yul\":4298:4307   */\n      dup3\n        /* \"#utility.yul\":4294:4312   */\n      add\n        /* \"#utility.yul\":4286:4312   */\n      swap1\n      pop\n        /* \"#utility.yul\":4358:4367   */\n      dup2\n        /* \"#utility.yul\":4352:4356   */\n      dup2\n        /* \"#utility.yul\":4348:4368   */\n      sub\n        /* \"#utility.yul\":4344:4345   */\n      0x00\n        /* \"#utility.yul\":4333:4342   */\n      dup4\n        /* \"#utility.yul\":4329:4346   */\n      add\n        /* \"#utility.yul\":4322:4369   */\n      mstore\n        /* \"#utility.yul\":4386:4517   */\n      tag_173\n        /* \"#utility.yul\":4512:4516   */\n      dup2\n        /* \"#utility.yul\":4386:4517   */\n      tag_154\n      jump\t// in\n    tag_173:\n        /* \"#utility.yul\":4378:4517   */\n      swap1\n      pop\n        /* \"#utility.yul\":4105:4524   */\n      swap2\n      swap1\n      pop\n      jump\t// out\n        /* \"#utility.yul\":4530:4949   */\n    tag_92:\n        /* \"#utility.yul\":4696:4700   */\n      0x00\n        /* \"#utility.yul\":4734:4736   */\n      0x20\n        /* \"#utility.yul\":4723:4732   */\n      dup3\n        /* \"#utility.yul\":4719:4737   */\n      add\n        /* \"#utility.yul\":4711:4737   */\n      swap1\n      pop\n        /* \"#utility.yul\":4783:4792   */\n      dup2\n        /* \"#utility.yul\":4777:4781   */\n      dup2\n        /* \"#utility.yul\":4773:4793   */\n      sub\n        /* \"#utility.yul\":4769:4770   */\n      0x00\n        /* \"#utility.yul\":4758:4767   */\n      dup4\n        /* \"#utility.yul\":4754:4771   */\n      add\n        /* \"#utility.yul\":4747:4794   */\n      mstore\n        /* \"#utility.yul\":4811:4942   */\n      tag_175\n        /* \"#utility.yul\":4937:4941   */\n      dup2\n        /* \"#utility.yul\":4811:4942   */\n      tag_159\n      jump\t// in\n    tag_175:\n        /* \"#utility.yul\":4803:4942   */\n      swap1\n      pop\n        /* \"#utility.yul\":4530:4949   */\n      swap2\n      swap1\n      pop\n      jump\t// out\n        /* \"#utility.yul\":4955:5177   */\n    tag_18:\n        /* \"#utility.yul\":5048:5052   */\n      0x00\n        /* \"#utility.yul\":5086:5088   */\n      0x20\n        /* \"#utility.yul\":5075:5084   */\n      dup3\n        /* \"#utility.yul\":5071:5089   */\n      add\n        /* \"#utility.yul\":5063:5089   */\n      swap1\n      pop\n        /* \"#utility.yul\":5099:5170   */\n      tag_177\n        /* \"#utility.yul\":5167:5168   */\n      0x00\n        /* \"#utility.yul\":5156:5165   */\n      dup4\n        /* \"#utility.yul\":5152:5169   */\n      add\n        /* \"#utility.yul\":5143:5149   */\n      dup5\n        /* \"#utility.yul\":5099:5170   */\n      tag_164\n      jump\t// in\n    tag_177:\n        /* \"#utility.yul\":4955:5177   */\n      swap3\n      swap2\n      pop\n      pop\n      jump\t// out\n        /* \"#utility.yul\":5264:5363   */\n    tag_147:\n        /* \"#utility.yul\":5316:5322   */\n      0x00\n        /* \"#utility.yul\":5350:5355   */\n      dup2\n        /* \"#utility.yul\":5344:5356   */\n      mload\n        /* \"#utility.yul\":5334:5356   */\n      swap1\n      pop\n        /* \"#utility.yul\":5264:5363   */\n      swap2\n      swap1\n      pop\n      jump\t// out\n        /* \"#utility.yul\":5369:5538   */\n    tag_149:\n        /* \"#utility.yul\":5453:5464   */\n      0x00\n        /* \"#utility.yul\":5487:5493   */\n      dup3\n        /* \"#utility.yul\":5482:5485   */\n      dup3\n        /* \"#utility.yul\":5475:5494   */\n      mstore\n        /* \"#utility.yul\":5527:5531   */\n      0x20\n        /* \"#utility.yul\":5522:5525   */\n      dup3\n        /* \"#utility.yul\":5518:5532   */\n      add\n        /* \"#utility.yul\":5503:5532   */\n      swap1\n      pop\n        /* \"#utility.yul\":5369:5538   */\n      swap3\n      swap2\n      pop\n      pop\n      jump\t// out\n        /* \"#utility.yul\":5544:5849   */\n    tag_86:\n        /* \"#utility.yul\":5584:5587   */\n      0x00\n        /* \"#utility.yul\":5603:5623   */\n      tag_183\n        /* \"#utility.yul\":5621:5622   */\n      dup3\n        /* \"#utility.yul\":5603:5623   */\n      tag_167\n      jump\t// in\n    tag_183:\n        /* \"#utility.yul\":5598:5623   */\n      swap2\n      pop\n        /* \"#utility.yul\":5637:5657   */\n      tag_184\n        /* \"#utility.yul\":5655:5656   */\n      dup4\n        /* \"#utility.yul\":5637:5657   */\n      tag_167\n      jump\t// in\n    tag_184:\n        /* \"#utility.yul\":5632:5657   */\n      swap3\n      pop\n        /* \"#utility.yul\":5791:5792   */\n      dup3\n        /* \"#utility.yul\":5723:5789   */\n      0xffffffffffffffffffffffffffffffffffffffffffffffffffffffffffffffff\n        /* \"#utility.yul\":5719:5793   */\n      sub\n        /* \"#utility.yul\":5716:5717   */\n      dup3\n        /* \"#utility.yul\":5713:5794   */\n      gt\n        /* \"#utility.yul\":5710:5817   */\n      iszero\n      tag_185\n      jumpi\n        /* \"#utility.yul\":5797:5815   */\n      tag_186\n      tag_187\n      jump\t// in\n    tag_186:\n        /* \"#utility.yul\":5710:5817   */\n    tag_185:\n        /* \"#utility.yul\":5841:5842   */\n      dup3\n        /* \"#utility.yul\":5838:5839   */\n      dup3\n        /* \"#utility.yul\":5834:5843   */\n      add\n        /* \"#utility.yul\":5827:5843   */\n      swap1\n      pop\n        /* \"#utility.yul\":5544:5849   */\n      swap3\n      swap2\n      pop\n      pop\n      jump\t// out\n        /* \"#utility.yul\":5855:6046   */\n    tag_94:\n        /* \"#utility.yul\":5895:5899   */\n      0x00\n        /* \"#utility.yul\":5915:5935   */\n      tag_189\n        /* \"#utility.yul\":5933:5934   */\n      dup3\n        /* \"#utility.yul\":5915:5935   */\n      tag_167\n      jump\t// in\n    tag_189:\n        /* \"#utility.yul\":5910:5935   */\n      swap2\n      pop\n        /* \"#utility.yul\":5949:5969   */\n      tag_190\n        /* \"#utility.yul\":5967:5968   */\n      dup4\n        /* \"#utility.yul\":5949:5969   */\n      tag_167\n      jump\t// in\n    tag_190:\n        /* \"#utility.yul\":5944:5969   */\n      swap3\n      pop\n        /* \"#utility.yul\":5988:5989   */\n      dup3\n        /* \"#utility.yul\":5985:5986   */\n      dup3\n        /* \"#utility.yul\":5982:5990   */\n      lt\n        /* \"#utility.yul\":5979:6013   */\n      iszero\n      tag_191\n      jumpi\n        /* \"#utility.yul\":5993:6011   */\n      tag_192\n      tag_187\n      jump\t// in\n    tag_192:\n        /* \"#utility.yul\":5979:6013   */\n    tag_191:\n        /* \"#utility.yul\":6038:6039   */\n      dup3\n        /* \"#utility.yul\":6035:6036   */\n      dup3\n        /* \"#utility.yul\":6031:6040   */\n      sub\n        /* \"#utility.yul\":6023:6040   */\n      swap1\n      pop\n        /* \"#utility.yul\":5855:6046   */\n      swap3\n      swap2\n      pop\n      pop\n      jump\t// out\n        /* \"#utility.yul\":6052:6148   */\n    tag_193:\n        /* \"#utility.yul\":6089:6096   */\n      0x00\n        /* \"#utility.yul\":6118:6142   */\n      tag_195\n        /* \"#utility.yul\":6136:6141   */\n      dup3\n        /* \"#utility.yul\":6118:6142   */\n      tag_196\n      jump\t// in\n    tag_195:\n        /* \"#utility.yul\":6107:6142   */\n      swap1\n      pop\n        /* \"#utility.yul\":6052:6148   */\n      swap2\n      swap1\n      pop\n      jump\t// out\n        /* \"#utility.yul\":6154:6244   */\n    tag_143:\n        /* \"#utility.yul\":6188:6195   */\n      0x00\n        /* \"#utility.yul\":6231:6236   */\n      dup2\n        /* \"#utility.yul\":6224:6237   */\n      iszero\n        /* \"#utility.yul\":6217:6238   */\n      iszero\n        /* \"#utility.yul\":6206:6238   */\n      swap1\n      pop\n        /* \"#utility.yul\":6154:6244   */\n      swap2\n      swap1\n      pop\n      jump\t// out\n        /* \"#utility.yul\":6250:6376   */\n    tag_196:\n        /* \"#utility.yul\":6287:6294   */\n      0x00\n        /* \"#utility.yul\":6327:6369   */\n      0xffffffffffffffffffffffffffffffffffffffff\n        /* \"#utility.yul\":6320:6325   */\n      dup3\n        /* \"#utility.yul\":6316:6370   */\n      and\n        /* \"#utility.yul\":6305:6370   */\n      swap1\n      pop\n        /* \"#utility.yul\":6250:6376   */\n      swap2\n      swap1\n      pop\n      jump\t// out\n        /* \"#utility.yul\":6382:6459   */\n    tag_167:\n        /* \"#utility.yul\":6419:6426   */\n      0x00\n        /* \"#utility.yul\":6448:6453   */\n      dup2\n        /* \"#utility.yul\":6437:6453   */\n      swap1\n      pop\n        /* \"#utility.yul\":6382:6459   */\n      swap2\n      swap1\n      pop\n      jump\t// out\n        /* \"#utility.yul\":6465:6772   */\n    tag_151:\n        /* \"#utility.yul\":6533:6534   */\n      0x00\n        /* \"#utility.yul\":6543:6656   */\n    tag_201:\n        /* \"#utility.yul\":6557:6563   */\n      dup4\n        /* \"#utility.yul\":6554:6555   */\n      dup2\n        /* \"#utility.yul\":6551:6564   */\n      lt\n        /* \"#utility.yul\":6543:6656   */\n      iszero\n      tag_203\n      jumpi\n        /* \"#utility.yul\":6642:6643   */\n      dup1\n        /* \"#utility.yul\":6637:6640   */\n      dup3\n        /* \"#utility.yul\":6633:6644   */\n      add\n        /* \"#utility.yul\":6627:6645   */\n      mload\n        /* \"#utility.yul\":6623:6624   */\n      dup2\n        /* \"#utility.yul\":6618:6621   */\n      dup5\n        /* \"#utility.yul\":6614:6625   */\n      add\n        /* \"#utility.yul\":6607:6646   */\n      mstore\n        /* \"#utility.yul\":6579:6581   */\n      0x20\n        /* \"#utility.yul\":6576:6577   */\n      dup2\n        /* \"#utility.yul\":6572:6582   */\n      add\n        /* \"#utility.yul\":6567:6582   */\n      swap1\n      pop\n        /* \"#utility.yul\":6543:6656   */\n      jump(tag_201)\n    tag_203:\n        /* \"#utility.yul\":6674:6680   */\n      dup4\n        /* \"#utility.yul\":6671:6672   */\n      dup2\n        /* \"#utility.yul\":6668:6681   */\n      gt\n        /* \"#utility.yul\":6665:6766   */\n      iszero\n      tag_204\n      jumpi\n        /* \"#utility.yul\":6754:6755   */\n      0x00\n        /* \"#utility.yul\":6745:6751   */\n      dup5\n        /* \"#utility.yul\":6740:6743   */\n      dup5\n        /* \"#utility.yul\":6736:6752   */\n      add\n        /* \"#utility.yul\":6729:6756   */\n      mstore\n        /* \"#utility.yul\":6665:6766   */\n    tag_204:\n        /* \"#utility.yul\":6514:6772   */\n      pop\n        /* \"#utility.yul\":6465:6772   */\n      pop\n      pop\n      pop\n      jump\t// out\n        /* \"#utility.yul\":6778:7098   */\n    tag_76:\n        /* \"#utility.yul\":6822:6828   */\n      0x00\n        /* \"#utility.yul\":6859:6860   */\n      0x02\n        /* \"#utility.yul\":6853:6857   */\n      dup3\n        /* \"#utility.yul\":6849:6861   */\n      div\n        /* \"#utility.yul\":6839:6861   */\n      swap1\n      pop\n        /* \"#utility.yul\":6906:6907   */\n      0x01\n        /* \"#utility.yul\":6900:6904   */\n      dup3\n        /* \"#utility.yul\":6896:6908   */\n      and\n        /* \"#utility.yul\":6927:6945   */\n      dup1\n        /* \"#utility.yul\":6917:6998   */\n      tag_206\n      jumpi\n        /* \"#utility.yul\":6983:6987   */\n      0x7f\n        /* \"#utility.yul\":6975:6981   */\n      dup3\n        /* \"#utility.yul\":6971:6988   */\n      and\n        /* \"#utility.yul\":6961:6988   */\n      swap2\n      pop\n        /* \"#utility.yul\":6917:6998   */\n    tag_206:\n        /* \"#utility.yul\":7045:7047   */\n      0x20\n        /* \"#utility.yul\":7037:7043   */\n      dup3\n        /* \"#utility.yul\":7034:7048   */\n      lt\n        /* \"#utility.yul\":7014:7032   */\n      dup2\n        /* \"#utility.yul\":7011:7049   */\n      eq\n        /* \"#utility.yul\":7008:7092   */\n      iszero\n      tag_207\n      jumpi\n        /* \"#utility.yul\":7064:7082   */\n      tag_208\n      tag_209\n      jump\t// in\n    tag_208:\n        /* \"#utility.yul\":7008:7092   */\n    tag_207:\n        /* \"#utility.yul\":6829:7098   */\n      pop\n        /* \"#utility.yul\":6778:7098   */\n      swap2\n      swap1\n      pop\n      jump\t// out\n        /* \"#utility.yul\":7104:7284   */\n    tag_187:\n        /* \"#utility.yul\":7152:7229   */\n      0x4e487b7100000000000000000000000000000000000000000000000000000000\n        /* \"#utility.yul\":7149:7150   */\n      0x00\n        /* \"#utility.yul\":7142:7230   */\n      mstore\n        /* \"#utility.yul\":7249:7253   */\n      0x11\n        /* \"#utility.yul\":7246:7247   */\n      0x04\n        /* \"#utility.yul\":7239:7254   */\n      mstore\n        /* \"#utility.yul\":7273:7277   */\n      0x24\n        /* \"#utility.yul\":7270:7271   */\n      0x00\n        /* \"#utility.yul\":7263:7278   */\n      revert\n        /* \"#utility.yul\":7290:7470   */\n    tag_209:\n        /* \"#utility.yul\":7338:7415   */\n      0x4e487b7100000000000000000000000000000000000000000000000000000000\n        /* \"#utility.yul\":7335:7336   */\n      0x00\n        /* \"#utility.yul\":7328:7416   */\n      mstore\n        /* \"#utility.yul\":7435:7439   */\n      0x22\n        /* \"#utility.yul\":7432:7433   */\n      0x04\n        /* \"#utility.yul\":7425:7440   */\n      mstore\n        /* \"#utility.yul\":7459:7463   */\n      0x24\n        /* \"#utility.yul\":7456:7457   */\n      0x00\n        /* \"#utility.yul\":7449:7464   */\n      revert\n        /* \"#utility.yul\":7599:7716   */\n    tag_122:\n        /* \"#utility.yul\":7708:7709   */\n      0x00\n        /* \"#utility.yul\":7705:7706   */\n      dup1\n        /* \"#utility.yul\":7698:7710   */\n      revert\n        /* \"#utility.yul\":7722:7824   */\n    tag_153:\n        /* \"#utility.yul\":7763:7769   */\n      0x00\n        /* \"#utility.yul\":7814:7816   */\n      0x1f\n        /* \"#utility.yul\":7810:7817   */\n      not\n        /* \"#utility.yul\":7805:7807   */\n      0x1f\n        /* \"#utility.yul\":7798:7803   */\n      dup4\n        /* \"#utility.yul\":7794:7808   */\n      add\n        /* \"#utility.yul\":7790:7818   */\n      and\n        /* \"#utility.yul\":7780:7818   */\n      swap1\n      pop\n        /* \"#utility.yul\":7722:7824   */\n      swap2\n      swap1\n      pop\n      jump\t// out\n        /* \"#utility.yul\":7830:8009   */\n    tag_158:\n        /* \"#utility.yul\":7970:8001   */\n      0x596f7520646f6e2774206861766520656e6f7567682062616c616e6365000000\n        /* \"#utility.yul\":7966:7967   */\n      0x00\n        /* \"#utility.yul\":7958:7964   */\n      dup3\n        /* \"#utility.yul\":7954:7968   */\n      add\n        /* \"#utility.yul\":7947:8002   */\n      mstore\n        /* \"#utility.yul\":7830:8009   */\n      pop\n      jump\t// out\n        /* \"#utility.yul\":8015:8184   */\n    tag_163:\n        /* \"#utility.yul\":8155:8176   */\n      0x416d6f756e74206e6f7420617070726f76656400000000000000000000000000\n        /* \"#utility.yul\":8151:8152   */\n      0x00\n        /* \"#utility.yul\":8143:8149   */\n      dup3\n        /* \"#utility.yul\":8139:8153   */\n      add\n        /* \"#utility.yul\":8132:8177   */\n      mstore\n        /* \"#utility.yul\":8015:8184   */\n      pop\n      jump\t// out\n        /* \"#utility.yul\":8190:8312   */\n    tag_114:\n        /* \"#utility.yul\":8263:8287   */\n      tag_219\n        /* \"#utility.yul\":8281:8286   */\n      dup2\n        /* \"#utility.yul\":8263:8287   */\n      tag_193\n      jump\t// in\n    tag_219:\n        /* \"#utility.yul\":8256:8261   */\n      dup2\n        /* \"#utility.yul\":8253:8288   */\n      eq\n        /* \"#utility.yul\":8243:8306   */\n      tag_220\n      jumpi\n        /* \"#utility.yul\":8302:8303   */\n      0x00\n        /* \"#utility.yul\":8299:8300   */\n      dup1\n        /* \"#utility.yul\":8292:8304   */\n      revert\n        /* \"#utility.yul\":8243:8306   */\n    tag_220:\n        /* \"#utility.yul\":8190:8312   */\n      pop\n      jump\t// out\n        /* \"#utility.yul\":8318:8440   */\n    tag_118:\n        /* \"#utility.yul\":8391:8415   */\n      tag_222\n        /* \"#utility.yul\":8409:8414   */\n      dup2\n        /* \"#utility.yul\":8391:8415   */\n      tag_167\n      jump\t// in\n    tag_222:\n        /* \"#utility.yul\":8384:8389   */\n      dup2\n        /* \"#utility.yul\":8381:8416   */\n      eq\n        /* \"#utility.yul\":8371:8434   */\n      tag_223\n      jumpi\n        /* \"#utility.yul\":8430:8431   */\n      0x00\n        /* \"#utility.yul\":8427:8428   */\n      dup1\n        /* \"#utility.yul\":8420:8432   */\n      revert\n        /* \"#utility.yul\":8371:8434   */\n    tag_223:\n        /* \"#utility.yul\":8318:8440   */\n      pop\n      jump\t// out\n\n    auxdata: 0xa26469706673582212201aa299ed050d222838389501554a581e7a702335c6a697bfe1c7d7eef4c22d6964736f6c63430008070033\n}\n",
				"bytecode": {
					"linkReferences": {},
					"object": "60806040526040518060400160405280600a81526020017f4f6c75776164756e6e6900000000000000000000000000000000000000000000815250600090805190602001906200005192919062000124565b506040518060400160405280600481526020017f44554e5300000000000000000000000000000000000000000000000000000000815250600190805190602001906200009f92919062000124565b506012600255600254600a620000b691906200022f565b633b9aca00620000c791906200036c565b600355348015620000d757600080fd5b50600354600460003373ffffffffffffffffffffffffffffffffffffffff1673ffffffffffffffffffffffffffffffffffffffff1681526020019081526020016000208190555062000478565b8280546200013290620003d7565b90600052602060002090601f016020900481019282620001565760008555620001a2565b82601f106200017157805160ff1916838001178555620001a2565b82800160010185558215620001a2579182015b82811115620001a157825182559160200191906001019062000184565b5b509050620001b19190620001b5565b5090565b5b80821115620001d0576000816000905550600101620001b6565b5090565b6000808291508390505b60018511156200022657808604811115620001fe57620001fd6200040d565b5b60018516156200020e5780820291505b80810290506200021e856200046b565b9450620001de565b94509492505050565b60006200023c82620003cd565b91506200024983620003cd565b9250620002787fffffffffffffffffffffffffffffffffffffffffffffffffffffffffffffffff848462000280565b905092915050565b60008262000292576001905062000365565b81620002a2576000905062000365565b8160018114620002bb5760028114620002c657620002fc565b600191505062000365565b60ff841115620002db57620002da6200040d565b5b8360020a915084821115620002f557620002f46200040d565b5b5062000365565b5060208310610133831016604e8410600b8410161715620003365782820a90508381111562000330576200032f6200040d565b5b62000365565b620003458484846001620001d4565b925090508184048111156200035f576200035e6200040d565b5b81810290505b9392505050565b60006200037982620003cd565b91506200038683620003cd565b9250817fffffffffffffffffffffffffffffffffffffffffffffffffffffffffffffffff0483118215151615620003c257620003c16200040d565b5b828202905092915050565b6000819050919050565b60006002820490506001821680620003f057607f821691505b602082108114156200040757620004066200043c565b5b50919050565b7f4e487b7100000000000000000000000000000000000000000000000000000000600052601160045260246000fd5b7f4e487b7100000000000000000000000000000000000000000000000000000000600052602260045260246000fd5b60008160011c9050919050565b610f2580620004886000396000f3fe6080604052600436106100a05760003560e01c8063313ce56711610064578063313ce5671461021257806370a082311461023d57806395d89b411461027a578063a9059cbb146102a5578063d0e30db0146102e2578063dd62ed3e146102ec576100de565b806306fdde0314610117578063095ea7b31461014257806312065fe01461017f57806318160ddd146101aa57806323b872dd146101d5576100de565b366100de577fa8142743f8f70a4c26f3691cf4ed59718381fb2f18070ec52be1f1022d855557346040516100d49190610c8d565b60405180910390a1005b7fa8142743f8f70a4c26f3691cf4ed59718381fb2f18070ec52be1f1022d8555573460405161010d9190610c8d565b60405180910390a1005b34801561012357600080fd5b5061012c610329565b6040516101399190610c2b565b60405180910390f35b34801561014e57600080fd5b5061016960048036038101906101649190610b33565b6103b7565b6040516101769190610c10565b60405180910390f35b34801561018b57600080fd5b5061019461053d565b6040516101a19190610c8d565b60405180910390f35b3480156101b657600080fd5b506101bf610545565b6040516101cc9190610c8d565b60405180910390f35b3480156101e157600080fd5b506101fc60048036038101906101f79190610ae0565b61054b565b6040516102099190610c10565b60405180910390f35b34801561021e57600080fd5b506102276107bb565b6040516102349190610c8d565b60405180910390f35b34801561024957600080fd5b50610264600480360381019061025f9190610a73565b6107c1565b6040516102719190610c8d565b60405180910390f35b34801561028657600080fd5b5061028f6107d9565b60405161029c9190610c2b565b60405180910390f35b3480156102b157600080fd5b506102cc60048036038101906102c79190610b33565b610867565b6040516102d99190610c10565b60405180910390f35b6102ea610984565b005b3480156102f857600080fd5b50610313600480360381019061030e9190610aa0565b6109bd565b6040516103209190610c8d565b60405180910390f35b6000805461033690610dc9565b80601f016020809104026020016040519081016040528092919081815260200182805461036290610dc9565b80156103af5780601f10610384576101008083540402835291602001916103af565b820191906000526020600020905b81548152906001019060200180831161039257829003601f168201915b505050505081565b600081600460003373ffffffffffffffffffffffffffffffffffffffff1673ffffffffffffffffffffffffffffffffffffffff16815260200190815260200160002054101561043b576040517f08c379a000000000000000000000000000000000000000000000000000000000815260040161043290610c4d565b60405180910390fd5b81600560003373ffffffffffffffffffffffffffffffffffffffff1673ffffffffffffffffffffffffffffffffffffffff16815260200190815260200160002060008573ffffffffffffffffffffffffffffffffffffffff1673ffffffffffffffffffffffffffffffffffffffff16815260200190815260200160002060008282546104c79190610cc4565b925050819055508273ffffffffffffffffffffffffffffffffffffffff163373ffffffffffffffffffffffffffffffffffffffff167f8c5be1e5ebec7d5bd14f71427d1e84f3dd0314c0f7b2291e5b200ac8c7c3b9258460405161052b9190610c8d565b60405180910390a36001905092915050565b600047905090565b60035481565b600081600560008673ffffffffffffffffffffffffffffffffffffffff1673ffffffffffffffffffffffffffffffffffffffff16815260200190815260200160002060003373ffffffffffffffffffffffffffffffffffffffff1673ffffffffffffffffffffffffffffffffffffffff16815260200190815260200160002054101561060c576040517f08c379a000000000000000000000000000000000000000000000000000000000815260040161060390610c6d565b60405180910390fd5b81600560008673ffffffffffffffffffffffffffffffffffffffff1673ffffffffffffffffffffffffffffffffffffffff16815260200190815260200160002060003373ffffffffffffffffffffffffffffffffffffffff1673ffffffffffffffffffffffffffffffffffffffff16815260200190815260200160002060008282546106989190610d1a565b9250508190555081600460008673ffffffffffffffffffffffffffffffffffffffff1673ffffffffffffffffffffffffffffffffffffffff16815260200190815260200160002060008282546106ee9190610d1a565b9250508190555081600460008573ffffffffffffffffffffffffffffffffffffffff1673ffffffffffffffffffffffffffffffffffffffff16815260200190815260200160002060008282546107449190610cc4565b925050819055508273ffffffffffffffffffffffffffffffffffffffff168473ffffffffffffffffffffffffffffffffffffffff167fddf252ad1be2c89b69c2b068fc378daa952ba7f163c4a11628f55a4df523b3ef846040516107a89190610c8d565b60405180910390a3600190509392505050565b60025481565b60046020528060005260406000206000915090505481565b600180546107e690610dc9565b80601f016020809104026020016040519081016040528092919081815260200182805461081290610dc9565b801561085f5780601f106108345761010080835404028352916020019161085f565b820191906000526020600020905b81548152906001019060200180831161084257829003601f168201915b505050505081565b600081600460003373ffffffffffffffffffffffffffffffffffffffff1673ffffffffffffffffffffffffffffffffffffffff16815260200190815260200160002060008282546108b89190610d1a565b9250508190555081600460008573ffffffffffffffffffffffffffffffffffffffff1673ffffffffffffffffffffffffffffffffffffffff168152602001908152602001600020600082825461090e9190610cc4565b925050819055508273ffffffffffffffffffffffffffffffffffffffff163373ffffffffffffffffffffffffffffffffffffffff167fddf252ad1be2c89b69c2b068fc378daa952ba7f163c4a11628f55a4df523b3ef846040516109729190610c8d565b60405180910390a36001905092915050565b7fa8142743f8f70a4c26f3691cf4ed59718381fb2f18070ec52be1f1022d855557346040516109b39190610c8d565b60405180910390a1565b600080600560008573ffffffffffffffffffffffffffffffffffffffff1673ffffffffffffffffffffffffffffffffffffffff16815260200190815260200160002060008473ffffffffffffffffffffffffffffffffffffffff1673ffffffffffffffffffffffffffffffffffffffff1681526020019081526020016000205490508091505092915050565b600081359050610a5881610ec1565b92915050565b600081359050610a6d81610ed8565b92915050565b600060208284031215610a8957610a88610e59565b5b6000610a9784828501610a49565b91505092915050565b60008060408385031215610ab757610ab6610e59565b5b6000610ac585828601610a49565b9250506020610ad685828601610a49565b9150509250929050565b600080600060608486031215610af957610af8610e59565b5b6000610b0786828701610a49565b9350506020610b1886828701610a49565b9250506040610b2986828701610a5e565b9150509250925092565b60008060408385031215610b4a57610b49610e59565b5b6000610b5885828601610a49565b9250506020610b6985828601610a5e565b9150509250929050565b610b7c81610d60565b82525050565b6000610b8d82610ca8565b610b978185610cb3565b9350610ba7818560208601610d96565b610bb081610e5e565b840191505092915050565b6000610bc8601d83610cb3565b9150610bd382610e6f565b602082019050919050565b6000610beb601383610cb3565b9150610bf682610e98565b602082019050919050565b610c0a81610d8c565b82525050565b6000602082019050610c256000830184610b73565b92915050565b60006020820190508181036000830152610c458184610b82565b905092915050565b60006020820190508181036000830152610c6681610bbb565b9050919050565b60006020820190508181036000830152610c8681610bde565b9050919050565b6000602082019050610ca26000830184610c01565b92915050565b600081519050919050565b600082825260208201905092915050565b6000610ccf82610d8c565b9150610cda83610d8c565b9250827fffffffffffffffffffffffffffffffffffffffffffffffffffffffffffffffff03821115610d0f57610d0e610dfb565b5b828201905092915050565b6000610d2582610d8c565b9150610d3083610d8c565b925082821015610d4357610d42610dfb565b5b828203905092915050565b6000610d5982610d6c565b9050919050565b60008115159050919050565b600073ffffffffffffffffffffffffffffffffffffffff82169050919050565b6000819050919050565b60005b83811015610db4578082015181840152602081019050610d99565b83811115610dc3576000848401525b50505050565b60006002820490506001821680610de157607f821691505b60208210811415610df557610df4610e2a565b5b50919050565b7f4e487b7100000000000000000000000000000000000000000000000000000000600052601160045260246000fd5b7f4e487b7100000000000000000000000000000000000000000000000000000000600052602260045260246000fd5b600080fd5b6000601f19601f8301169050919050565b7f596f7520646f6e2774206861766520656e6f7567682062616c616e6365000000600082015250565b7f416d6f756e74206e6f7420617070726f76656400000000000000000000000000600082015250565b610eca81610d4e565b8114610ed557600080fd5b50565b610ee181610d8c565b8114610eec57600080fd5b5056fea26469706673582212201aa299ed050d222838389501554a581e7a702335c6a697bfe1c7d7eef4c22d6964736f6c63430008070033",
					"opcodes": "PUSH1 0x80 PUSH1 0x40 MSTORE PUSH1 0x40 MLOAD DUP1 PUSH1 0x40 ADD PUSH1 0x40 MSTORE DUP1 PUSH1 0xA DUP2 MSTORE PUSH1 0x20 ADD PUSH32 0x4F6C75776164756E6E6900000000000000000000000000000000000000000000 DUP2 MSTORE POP PUSH1 0x0 SWAP1 DUP1 MLOAD SWAP1 PUSH1 0x20 ADD SWAP1 PUSH3 0x51 SWAP3 SWAP2 SWAP1 PUSH3 0x124 JUMP JUMPDEST POP PUSH1 0x40 MLOAD DUP1 PUSH1 0x40 ADD PUSH1 0x40 MSTORE DUP1 PUSH1 0x4 DUP2 MSTORE PUSH1 0x20 ADD PUSH32 0x44554E5300000000000000000000000000000000000000000000000000000000 DUP2 MSTORE POP PUSH1 0x1 SWAP1 DUP1 MLOAD SWAP1 PUSH1 0x20 ADD SWAP1 PUSH3 0x9F SWAP3 SWAP2 SWAP1 PUSH3 0x124 JUMP JUMPDEST POP PUSH1 0x12 PUSH1 0x2 SSTORE PUSH1 0x2 SLOAD PUSH1 0xA PUSH3 0xB6 SWAP2 SWAP1 PUSH3 0x22F JUMP JUMPDEST PUSH4 0x3B9ACA00 PUSH3 0xC7 SWAP2 SWAP1 PUSH3 0x36C JUMP JUMPDEST PUSH1 0x3 SSTORE CALLVALUE DUP1 ISZERO PUSH3 0xD7 JUMPI PUSH1 0x0 DUP1 REVERT JUMPDEST POP PUSH1 0x3 SLOAD PUSH1 0x4 PUSH1 0x0 CALLER PUSH20 0xFFFFFFFFFFFFFFFFFFFFFFFFFFFFFFFFFFFFFFFF AND PUSH20 0xFFFFFFFFFFFFFFFFFFFFFFFFFFFFFFFFFFFFFFFF AND DUP2 MSTORE PUSH1 0x20 ADD SWAP1 DUP2 MSTORE PUSH1 0x20 ADD PUSH1 0x0 KECCAK256 DUP2 SWAP1 SSTORE POP PUSH3 0x478 JUMP JUMPDEST DUP3 DUP1 SLOAD PUSH3 0x132 SWAP1 PUSH3 0x3D7 JUMP JUMPDEST SWAP1 PUSH1 0x0 MSTORE PUSH1 0x20 PUSH1 0x0 KECCAK256 SWAP1 PUSH1 0x1F ADD PUSH1 0x20 SWAP1 DIV DUP2 ADD SWAP3 DUP3 PUSH3 0x156 JUMPI PUSH1 0x0 DUP6 SSTORE PUSH3 0x1A2 JUMP JUMPDEST DUP3 PUSH1 0x1F LT PUSH3 0x171 JUMPI DUP1 MLOAD PUSH1 0xFF NOT AND DUP4 DUP1 ADD OR DUP6 SSTORE PUSH3 0x1A2 JUMP JUMPDEST DUP3 DUP1 ADD PUSH1 0x1 ADD DUP6 SSTORE DUP3 ISZERO PUSH3 0x1A2 JUMPI SWAP2 DUP3 ADD JUMPDEST DUP3 DUP2 GT ISZERO PUSH3 0x1A1 JUMPI DUP3 MLOAD DUP3 SSTORE SWAP2 PUSH1 0x20 ADD SWAP2 SWAP1 PUSH1 0x1 ADD SWAP1 PUSH3 0x184 JUMP JUMPDEST JUMPDEST POP SWAP1 POP PUSH3 0x1B1 SWAP2 SWAP1 PUSH3 0x1B5 JUMP JUMPDEST POP SWAP1 JUMP JUMPDEST JUMPDEST DUP1 DUP3 GT ISZERO PUSH3 0x1D0 JUMPI PUSH1 0x0 DUP2 PUSH1 0x0 SWAP1 SSTORE POP PUSH1 0x1 ADD PUSH3 0x1B6 JUMP JUMPDEST POP SWAP1 JUMP JUMPDEST PUSH1 0x0 DUP1 DUP3 SWAP2 POP DUP4 SWAP1 POP JUMPDEST PUSH1 0x1 DUP6 GT ISZERO PUSH3 0x226 JUMPI DUP1 DUP7 DIV DUP2 GT ISZERO PUSH3 0x1FE JUMPI PUSH3 0x1FD PUSH3 0x40D JUMP JUMPDEST JUMPDEST PUSH1 0x1 DUP6 AND ISZERO PUSH3 0x20E JUMPI DUP1 DUP3 MUL SWAP2 POP JUMPDEST DUP1 DUP2 MUL SWAP1 POP PUSH3 0x21E DUP6 PUSH3 0x46B JUMP JUMPDEST SWAP5 POP PUSH3 0x1DE JUMP JUMPDEST SWAP5 POP SWAP5 SWAP3 POP POP POP JUMP JUMPDEST PUSH1 0x0 PUSH3 0x23C DUP3 PUSH3 0x3CD JUMP JUMPDEST SWAP2 POP PUSH3 0x249 DUP4 PUSH3 0x3CD JUMP JUMPDEST SWAP3 POP PUSH3 0x278 PUSH32 0xFFFFFFFFFFFFFFFFFFFFFFFFFFFFFFFFFFFFFFFFFFFFFFFFFFFFFFFFFFFFFFFF DUP5 DUP5 PUSH3 0x280 JUMP JUMPDEST SWAP1 POP SWAP3 SWAP2 POP POP JUMP JUMPDEST PUSH1 0x0 DUP3 PUSH3 0x292 JUMPI PUSH1 0x1 SWAP1 POP PUSH3 0x365 JUMP JUMPDEST DUP2 PUSH3 0x2A2 JUMPI PUSH1 0x0 SWAP1 POP PUSH3 0x365 JUMP JUMPDEST DUP2 PUSH1 0x1 DUP2 EQ PUSH3 0x2BB JUMPI PUSH1 0x2 DUP2 EQ PUSH3 0x2C6 JUMPI PUSH3 0x2FC JUMP JUMPDEST PUSH1 0x1 SWAP2 POP POP PUSH3 0x365 JUMP JUMPDEST PUSH1 0xFF DUP5 GT ISZERO PUSH3 0x2DB JUMPI PUSH3 0x2DA PUSH3 0x40D JUMP JUMPDEST JUMPDEST DUP4 PUSH1 0x2 EXP SWAP2 POP DUP5 DUP3 GT ISZERO PUSH3 0x2F5 JUMPI PUSH3 0x2F4 PUSH3 0x40D JUMP JUMPDEST JUMPDEST POP PUSH3 0x365 JUMP JUMPDEST POP PUSH1 0x20 DUP4 LT PUSH2 0x133 DUP4 LT AND PUSH1 0x4E DUP5 LT PUSH1 0xB DUP5 LT AND OR ISZERO PUSH3 0x336 JUMPI DUP3 DUP3 EXP SWAP1 POP DUP4 DUP2 GT ISZERO PUSH3 0x330 JUMPI PUSH3 0x32F PUSH3 0x40D JUMP JUMPDEST JUMPDEST PUSH3 0x365 JUMP JUMPDEST PUSH3 0x345 DUP5 DUP5 DUP5 PUSH1 0x1 PUSH3 0x1D4 JUMP JUMPDEST SWAP3 POP SWAP1 POP DUP2 DUP5 DIV DUP2 GT ISZERO PUSH3 0x35F JUMPI PUSH3 0x35E PUSH3 0x40D JUMP JUMPDEST JUMPDEST DUP2 DUP2 MUL SWAP1 POP JUMPDEST SWAP4 SWAP3 POP POP POP JUMP JUMPDEST PUSH1 0x0 PUSH3 0x379 DUP3 PUSH3 0x3CD JUMP JUMPDEST SWAP2 POP PUSH3 0x386 DUP4 PUSH3 0x3CD JUMP JUMPDEST SWAP3 POP DUP2 PUSH32 0xFFFFFFFFFFFFFFFFFFFFFFFFFFFFFFFFFFFFFFFFFFFFFFFFFFFFFFFFFFFFFFFF DIV DUP4 GT DUP3 ISZERO ISZERO AND ISZERO PUSH3 0x3C2 JUMPI PUSH3 0x3C1 PUSH3 0x40D JUMP JUMPDEST JUMPDEST DUP3 DUP3 MUL SWAP1 POP SWAP3 SWAP2 POP POP JUMP JUMPDEST PUSH1 0x0 DUP2 SWAP1 POP SWAP2 SWAP1 POP JUMP JUMPDEST PUSH1 0x0 PUSH1 0x2 DUP3 DIV SWAP1 POP PUSH1 0x1 DUP3 AND DUP1 PUSH3 0x3F0 JUMPI PUSH1 0x7F DUP3 AND SWAP2 POP JUMPDEST PUSH1 0x20 DUP3 LT DUP2 EQ ISZERO PUSH3 0x407 JUMPI PUSH3 0x406 PUSH3 0x43C JUMP JUMPDEST JUMPDEST POP SWAP2 SWAP1 POP JUMP JUMPDEST PUSH32 0x4E487B7100000000000000000000000000000000000000000000000000000000 PUSH1 0x0 MSTORE PUSH1 0x11 PUSH1 0x4 MSTORE PUSH1 0x24 PUSH1 0x0 REVERT JUMPDEST PUSH32 0x4E487B7100000000000000000000000000000000000000000000000000000000 PUSH1 0x0 MSTORE PUSH1 0x22 PUSH1 0x4 MSTORE PUSH1 0x24 PUSH1 0x0 REVERT JUMPDEST PUSH1 0x0 DUP2 PUSH1 0x1 SHR SWAP1 POP SWAP2 SWAP1 POP JUMP JUMPDEST PUSH2 0xF25 DUP1 PUSH3 0x488 PUSH1 0x0 CODECOPY PUSH1 0x0 RETURN INVALID PUSH1 0x80 PUSH1 0x40 MSTORE PUSH1 0x4 CALLDATASIZE LT PUSH2 0xA0 JUMPI PUSH1 0x0 CALLDATALOAD PUSH1 0xE0 SHR DUP1 PUSH4 0x313CE567 GT PUSH2 0x64 JUMPI DUP1 PUSH4 0x313CE567 EQ PUSH2 0x212 JUMPI DUP1 PUSH4 0x70A08231 EQ PUSH2 0x23D JUMPI DUP1 PUSH4 0x95D89B41 EQ PUSH2 0x27A JUMPI DUP1 PUSH4 0xA9059CBB EQ PUSH2 0x2A5 JUMPI DUP1 PUSH4 0xD0E30DB0 EQ PUSH2 0x2E2 JUMPI DUP1 PUSH4 0xDD62ED3E EQ PUSH2 0x2EC JUMPI PUSH2 0xDE JUMP JUMPDEST DUP1 PUSH4 0x6FDDE03 EQ PUSH2 0x117 JUMPI DUP1 PUSH4 0x95EA7B3 EQ PUSH2 0x142 JUMPI DUP1 PUSH4 0x12065FE0 EQ PUSH2 0x17F JUMPI DUP1 PUSH4 0x18160DDD EQ PUSH2 0x1AA JUMPI DUP1 PUSH4 0x23B872DD EQ PUSH2 0x1D5 JUMPI PUSH2 0xDE JUMP JUMPDEST CALLDATASIZE PUSH2 0xDE JUMPI PUSH32 0xA8142743F8F70A4C26F3691CF4ED59718381FB2F18070EC52BE1F1022D855557 CALLVALUE PUSH1 0x40 MLOAD PUSH2 0xD4 SWAP2 SWAP1 PUSH2 0xC8D JUMP JUMPDEST PUSH1 0x40 MLOAD DUP1 SWAP2 SUB SWAP1 LOG1 STOP JUMPDEST PUSH32 0xA8142743F8F70A4C26F3691CF4ED59718381FB2F18070EC52BE1F1022D855557 CALLVALUE PUSH1 0x40 MLOAD PUSH2 0x10D SWAP2 SWAP1 PUSH2 0xC8D JUMP JUMPDEST PUSH1 0x40 MLOAD DUP1 SWAP2 SUB SWAP1 LOG1 STOP JUMPDEST CALLVALUE DUP1 ISZERO PUSH2 0x123 JUMPI PUSH1 0x0 DUP1 REVERT JUMPDEST POP PUSH2 0x12C PUSH2 0x329 JUMP JUMPDEST PUSH1 0x40 MLOAD PUSH2 0x139 SWAP2 SWAP1 PUSH2 0xC2B JUMP JUMPDEST PUSH1 0x40 MLOAD DUP1 SWAP2 SUB SWAP1 RETURN JUMPDEST CALLVALUE DUP1 ISZERO PUSH2 0x14E JUMPI PUSH1 0x0 DUP1 REVERT JUMPDEST POP PUSH2 0x169 PUSH1 0x4 DUP1 CALLDATASIZE SUB DUP2 ADD SWAP1 PUSH2 0x164 SWAP2 SWAP1 PUSH2 0xB33 JUMP JUMPDEST PUSH2 0x3B7 JUMP JUMPDEST PUSH1 0x40 MLOAD PUSH2 0x176 SWAP2 SWAP1 PUSH2 0xC10 JUMP JUMPDEST PUSH1 0x40 MLOAD DUP1 SWAP2 SUB SWAP1 RETURN JUMPDEST CALLVALUE DUP1 ISZERO PUSH2 0x18B JUMPI PUSH1 0x0 DUP1 REVERT JUMPDEST POP PUSH2 0x194 PUSH2 0x53D JUMP JUMPDEST PUSH1 0x40 MLOAD PUSH2 0x1A1 SWAP2 SWAP1 PUSH2 0xC8D JUMP JUMPDEST PUSH1 0x40 MLOAD DUP1 SWAP2 SUB SWAP1 RETURN JUMPDEST CALLVALUE DUP1 ISZERO PUSH2 0x1B6 JUMPI PUSH1 0x0 DUP1 REVERT JUMPDEST POP PUSH2 0x1BF PUSH2 0x545 JUMP JUMPDEST PUSH1 0x40 MLOAD PUSH2 0x1CC SWAP2 SWAP1 PUSH2 0xC8D JUMP JUMPDEST PUSH1 0x40 MLOAD DUP1 SWAP2 SUB SWAP1 RETURN JUMPDEST CALLVALUE DUP1 ISZERO PUSH2 0x1E1 JUMPI PUSH1 0x0 DUP1 REVERT JUMPDEST POP PUSH2 0x1FC PUSH1 0x4 DUP1 CALLDATASIZE SUB DUP2 ADD SWAP1 PUSH2 0x1F7 SWAP2 SWAP1 PUSH2 0xAE0 JUMP JUMPDEST PUSH2 0x54B JUMP JUMPDEST PUSH1 0x40 MLOAD PUSH2 0x209 SWAP2 SWAP1 PUSH2 0xC10 JUMP JUMPDEST PUSH1 0x40 MLOAD DUP1 SWAP2 SUB SWAP1 RETURN JUMPDEST CALLVALUE DUP1 ISZERO PUSH2 0x21E JUMPI PUSH1 0x0 DUP1 REVERT JUMPDEST POP PUSH2 0x227 PUSH2 0x7BB JUMP JUMPDEST PUSH1 0x40 MLOAD PUSH2 0x234 SWAP2 SWAP1 PUSH2 0xC8D JUMP JUMPDEST PUSH1 0x40 MLOAD DUP1 SWAP2 SUB SWAP1 RETURN JUMPDEST CALLVALUE DUP1 ISZERO PUSH2 0x249 JUMPI PUSH1 0x0 DUP1 REVERT JUMPDEST POP PUSH2 0x264 PUSH1 0x4 DUP1 CALLDATASIZE SUB DUP2 ADD SWAP1 PUSH2 0x25F SWAP2 SWAP1 PUSH2 0xA73 JUMP JUMPDEST PUSH2 0x7C1 JUMP JUMPDEST PUSH1 0x40 MLOAD PUSH2 0x271 SWAP2 SWAP1 PUSH2 0xC8D JUMP JUMPDEST PUSH1 0x40 MLOAD DUP1 SWAP2 SUB SWAP1 RETURN JUMPDEST CALLVALUE DUP1 ISZERO PUSH2 0x286 JUMPI PUSH1 0x0 DUP1 REVERT JUMPDEST POP PUSH2 0x28F PUSH2 0x7D9 JUMP JUMPDEST PUSH1 0x40 MLOAD PUSH2 0x29C SWAP2 SWAP1 PUSH2 0xC2B JUMP JUMPDEST PUSH1 0x40 MLOAD DUP1 SWAP2 SUB SWAP1 RETURN JUMPDEST CALLVALUE DUP1 ISZERO PUSH2 0x2B1 JUMPI PUSH1 0x0 DUP1 REVERT JUMPDEST POP PUSH2 0x2CC PUSH1 0x4 DUP1 CALLDATASIZE SUB DUP2 ADD SWAP1 PUSH2 0x2C7 SWAP2 SWAP1 PUSH2 0xB33 JUMP JUMPDEST PUSH2 0x867 JUMP JUMPDEST PUSH1 0x40 MLOAD PUSH2 0x2D9 SWAP2 SWAP1 PUSH2 0xC10 JUMP JUMPDEST PUSH1 0x40 MLOAD DUP1 SWAP2 SUB SWAP1 RETURN JUMPDEST PUSH2 0x2EA PUSH2 0x984 JUMP JUMPDEST STOP JUMPDEST CALLVALUE DUP1 ISZERO PUSH2 0x2F8 JUMPI PUSH1 0x0 DUP1 REVERT JUMPDEST POP PUSH2 0x313 PUSH1 0x4 DUP1 CALLDATASIZE SUB DUP2 ADD SWAP1 PUSH2 0x30E SWAP2 SWAP1 PUSH2 0xAA0 JUMP JUMPDEST PUSH2 0x9BD JUMP JUMPDEST PUSH1 0x40 MLOAD PUSH2 0x320 SWAP2 SWAP1 PUSH2 0xC8D JUMP JUMPDEST PUSH1 0x40 MLOAD DUP1 SWAP2 SUB SWAP1 RETURN JUMPDEST PUSH1 0x0 DUP1 SLOAD PUSH2 0x336 SWAP1 PUSH2 0xDC9 JUMP JUMPDEST DUP1 PUSH1 0x1F ADD PUSH1 0x20 DUP1 SWAP2 DIV MUL PUSH1 0x20 ADD PUSH1 0x40 MLOAD SWAP1 DUP2 ADD PUSH1 0x40 MSTORE DUP1 SWAP3 SWAP2 SWAP1 DUP2 DUP2 MSTORE PUSH1 0x20 ADD DUP3 DUP1 SLOAD PUSH2 0x362 SWAP1 PUSH2 0xDC9 JUMP JUMPDEST DUP1 ISZERO PUSH2 0x3AF JUMPI DUP1 PUSH1 0x1F LT PUSH2 0x384 JUMPI PUSH2 0x100 DUP1 DUP4 SLOAD DIV MUL DUP4 MSTORE SWAP2 PUSH1 0x20 ADD SWAP2 PUSH2 0x3AF JUMP JUMPDEST DUP3 ADD SWAP2 SWAP1 PUSH1 0x0 MSTORE PUSH1 0x20 PUSH1 0x0 KECCAK256 SWAP1 JUMPDEST DUP2 SLOAD DUP2 MSTORE SWAP1 PUSH1 0x1 ADD SWAP1 PUSH1 0x20 ADD DUP1 DUP4 GT PUSH2 0x392 JUMPI DUP3 SWAP1 SUB PUSH1 0x1F AND DUP3 ADD SWAP2 JUMPDEST POP POP POP POP POP DUP2 JUMP JUMPDEST PUSH1 0x0 DUP2 PUSH1 0x4 PUSH1 0x0 CALLER PUSH20 0xFFFFFFFFFFFFFFFFFFFFFFFFFFFFFFFFFFFFFFFF AND PUSH20 0xFFFFFFFFFFFFFFFFFFFFFFFFFFFFFFFFFFFFFFFF AND DUP2 MSTORE PUSH1 0x20 ADD SWAP1 DUP2 MSTORE PUSH1 0x20 ADD PUSH1 0x0 KECCAK256 SLOAD LT ISZERO PUSH2 0x43B JUMPI PUSH1 0x40 MLOAD PUSH32 0x8C379A000000000000000000000000000000000000000000000000000000000 DUP2 MSTORE PUSH1 0x4 ADD PUSH2 0x432 SWAP1 PUSH2 0xC4D JUMP JUMPDEST PUSH1 0x40 MLOAD DUP1 SWAP2 SUB SWAP1 REVERT JUMPDEST DUP2 PUSH1 0x5 PUSH1 0x0 CALLER PUSH20 0xFFFFFFFFFFFFFFFFFFFFFFFFFFFFFFFFFFFFFFFF AND PUSH20 0xFFFFFFFFFFFFFFFFFFFFFFFFFFFFFFFFFFFFFFFF AND DUP2 MSTORE PUSH1 0x20 ADD SWAP1 DUP2 MSTORE PUSH1 0x20 ADD PUSH1 0x0 KECCAK256 PUSH1 0x0 DUP6 PUSH20 0xFFFFFFFFFFFFFFFFFFFFFFFFFFFFFFFFFFFFFFFF AND PUSH20 0xFFFFFFFFFFFFFFFFFFFFFFFFFFFFFFFFFFFFFFFF AND DUP2 MSTORE PUSH1 0x20 ADD SWAP1 DUP2 MSTORE PUSH1 0x20 ADD PUSH1 0x0 KECCAK256 PUSH1 0x0 DUP3 DUP3 SLOAD PUSH2 0x4C7 SWAP2 SWAP1 PUSH2 0xCC4 JUMP JUMPDEST SWAP3 POP POP DUP2 SWAP1 SSTORE POP DUP3 PUSH20 0xFFFFFFFFFFFFFFFFFFFFFFFFFFFFFFFFFFFFFFFF AND CALLER PUSH20 0xFFFFFFFFFFFFFFFFFFFFFFFFFFFFFFFFFFFFFFFF AND PUSH32 0x8C5BE1E5EBEC7D5BD14F71427D1E84F3DD0314C0F7B2291E5B200AC8C7C3B925 DUP5 PUSH1 0x40 MLOAD PUSH2 0x52B SWAP2 SWAP1 PUSH2 0xC8D JUMP JUMPDEST PUSH1 0x40 MLOAD DUP1 SWAP2 SUB SWAP1 LOG3 PUSH1 0x1 SWAP1 POP SWAP3 SWAP2 POP POP JUMP JUMPDEST PUSH1 0x0 SELFBALANCE SWAP1 POP SWAP1 JUMP JUMPDEST PUSH1 0x3 SLOAD DUP2 JUMP JUMPDEST PUSH1 0x0 DUP2 PUSH1 0x5 PUSH1 0x0 DUP7 PUSH20 0xFFFFFFFFFFFFFFFFFFFFFFFFFFFFFFFFFFFFFFFF AND PUSH20 0xFFFFFFFFFFFFFFFFFFFFFFFFFFFFFFFFFFFFFFFF AND DUP2 MSTORE PUSH1 0x20 ADD SWAP1 DUP2 MSTORE PUSH1 0x20 ADD PUSH1 0x0 KECCAK256 PUSH1 0x0 CALLER PUSH20 0xFFFFFFFFFFFFFFFFFFFFFFFFFFFFFFFFFFFFFFFF AND PUSH20 0xFFFFFFFFFFFFFFFFFFFFFFFFFFFFFFFFFFFFFFFF AND DUP2 MSTORE PUSH1 0x20 ADD SWAP1 DUP2 MSTORE PUSH1 0x20 ADD PUSH1 0x0 KECCAK256 SLOAD LT ISZERO PUSH2 0x60C JUMPI PUSH1 0x40 MLOAD PUSH32 0x8C379A000000000000000000000000000000000000000000000000000000000 DUP2 MSTORE PUSH1 0x4 ADD PUSH2 0x603 SWAP1 PUSH2 0xC6D JUMP JUMPDEST PUSH1 0x40 MLOAD DUP1 SWAP2 SUB SWAP1 REVERT JUMPDEST DUP2 PUSH1 0x5 PUSH1 0x0 DUP7 PUSH20 0xFFFFFFFFFFFFFFFFFFFFFFFFFFFFFFFFFFFFFFFF AND PUSH20 0xFFFFFFFFFFFFFFFFFFFFFFFFFFFFFFFFFFFFFFFF AND DUP2 MSTORE PUSH1 0x20 ADD SWAP1 DUP2 MSTORE PUSH1 0x20 ADD PUSH1 0x0 KECCAK256 PUSH1 0x0 CALLER PUSH20 0xFFFFFFFFFFFFFFFFFFFFFFFFFFFFFFFFFFFFFFFF AND PUSH20 0xFFFFFFFFFFFFFFFFFFFFFFFFFFFFFFFFFFFFFFFF AND DUP2 MSTORE PUSH1 0x20 ADD SWAP1 DUP2 MSTORE PUSH1 0x20 ADD PUSH1 0x0 KECCAK256 PUSH1 0x0 DUP3 DUP3 SLOAD PUSH2 0x698 SWAP2 SWAP1 PUSH2 0xD1A JUMP JUMPDEST SWAP3 POP POP DUP2 SWAP1 SSTORE POP DUP2 PUSH1 0x4 PUSH1 0x0 DUP7 PUSH20 0xFFFFFFFFFFFFFFFFFFFFFFFFFFFFFFFFFFFFFFFF AND PUSH20 0xFFFFFFFFFFFFFFFFFFFFFFFFFFFFFFFFFFFFFFFF AND DUP2 MSTORE PUSH1 0x20 ADD SWAP1 DUP2 MSTORE PUSH1 0x20 ADD PUSH1 0x0 KECCAK256 PUSH1 0x0 DUP3 DUP3 SLOAD PUSH2 0x6EE SWAP2 SWAP1 PUSH2 0xD1A JUMP JUMPDEST SWAP3 POP POP DUP2 SWAP1 SSTORE POP DUP2 PUSH1 0x4 PUSH1 0x0 DUP6 PUSH20 0xFFFFFFFFFFFFFFFFFFFFFFFFFFFFFFFFFFFFFFFF AND PUSH20 0xFFFFFFFFFFFFFFFFFFFFFFFFFFFFFFFFFFFFFFFF AND DUP2 MSTORE PUSH1 0x20 ADD SWAP1 DUP2 MSTORE PUSH1 0x20 ADD PUSH1 0x0 KECCAK256 PUSH1 0x0 DUP3 DUP3 SLOAD PUSH2 0x744 SWAP2 SWAP1 PUSH2 0xCC4 JUMP JUMPDEST SWAP3 POP POP DUP2 SWAP1 SSTORE POP DUP3 PUSH20 0xFFFFFFFFFFFFFFFFFFFFFFFFFFFFFFFFFFFFFFFF AND DUP5 PUSH20 0xFFFFFFFFFFFFFFFFFFFFFFFFFFFFFFFFFFFFFFFF AND PUSH32 0xDDF252AD1BE2C89B69C2B068FC378DAA952BA7F163C4A11628F55A4DF523B3EF DUP5 PUSH1 0x40 MLOAD PUSH2 0x7A8 SWAP2 SWAP1 PUSH2 0xC8D JUMP JUMPDEST PUSH1 0x40 MLOAD DUP1 SWAP2 SUB SWAP1 LOG3 PUSH1 0x1 SWAP1 POP SWAP4 SWAP3 POP POP POP JUMP JUMPDEST PUSH1 0x2 SLOAD DUP2 JUMP JUMPDEST PUSH1 0x4 PUSH1 0x20 MSTORE DUP1 PUSH1 0x0 MSTORE PUSH1 0x40 PUSH1 0x0 KECCAK256 PUSH1 0x0 SWAP2 POP SWAP1 POP SLOAD DUP2 JUMP JUMPDEST PUSH1 0x1 DUP1 SLOAD PUSH2 0x7E6 SWAP1 PUSH2 0xDC9 JUMP JUMPDEST DUP1 PUSH1 0x1F ADD PUSH1 0x20 DUP1 SWAP2 DIV MUL PUSH1 0x20 ADD PUSH1 0x40 MLOAD SWAP1 DUP2 ADD PUSH1 0x40 MSTORE DUP1 SWAP3 SWAP2 SWAP1 DUP2 DUP2 MSTORE PUSH1 0x20 ADD DUP3 DUP1 SLOAD PUSH2 0x812 SWAP1 PUSH2 0xDC9 JUMP JUMPDEST DUP1 ISZERO PUSH2 0x85F JUMPI DUP1 PUSH1 0x1F LT PUSH2 0x834 JUMPI PUSH2 0x100 DUP1 DUP4 SLOAD DIV MUL DUP4 MSTORE SWAP2 PUSH1 0x20 ADD SWAP2 PUSH2 0x85F JUMP JUMPDEST DUP3 ADD SWAP2 SWAP1 PUSH1 0x0 MSTORE PUSH1 0x20 PUSH1 0x0 KECCAK256 SWAP1 JUMPDEST DUP2 SLOAD DUP2 MSTORE SWAP1 PUSH1 0x1 ADD SWAP1 PUSH1 0x20 ADD DUP1 DUP4 GT PUSH2 0x842 JUMPI DUP3 SWAP1 SUB PUSH1 0x1F AND DUP3 ADD SWAP2 JUMPDEST POP POP POP POP POP DUP2 JUMP JUMPDEST PUSH1 0x0 DUP2 PUSH1 0x4 PUSH1 0x0 CALLER PUSH20 0xFFFFFFFFFFFFFFFFFFFFFFFFFFFFFFFFFFFFFFFF AND PUSH20 0xFFFFFFFFFFFFFFFFFFFFFFFFFFFFFFFFFFFFFFFF AND DUP2 MSTORE PUSH1 0x20 ADD SWAP1 DUP2 MSTORE PUSH1 0x20 ADD PUSH1 0x0 KECCAK256 PUSH1 0x0 DUP3 DUP3 SLOAD PUSH2 0x8B8 SWAP2 SWAP1 PUSH2 0xD1A JUMP JUMPDEST SWAP3 POP POP DUP2 SWAP1 SSTORE POP DUP2 PUSH1 0x4 PUSH1 0x0 DUP6 PUSH20 0xFFFFFFFFFFFFFFFFFFFFFFFFFFFFFFFFFFFFFFFF AND PUSH20 0xFFFFFFFFFFFFFFFFFFFFFFFFFFFFFFFFFFFFFFFF AND DUP2 MSTORE PUSH1 0x20 ADD SWAP1 DUP2 MSTORE PUSH1 0x20 ADD PUSH1 0x0 KECCAK256 PUSH1 0x0 DUP3 DUP3 SLOAD PUSH2 0x90E SWAP2 SWAP1 PUSH2 0xCC4 JUMP JUMPDEST SWAP3 POP POP DUP2 SWAP1 SSTORE POP DUP3 PUSH20 0xFFFFFFFFFFFFFFFFFFFFFFFFFFFFFFFFFFFFFFFF AND CALLER PUSH20 0xFFFFFFFFFFFFFFFFFFFFFFFFFFFFFFFFFFFFFFFF AND PUSH32 0xDDF252AD1BE2C89B69C2B068FC378DAA952BA7F163C4A11628F55A4DF523B3EF DUP5 PUSH1 0x40 MLOAD PUSH2 0x972 SWAP2 SWAP1 PUSH2 0xC8D JUMP JUMPDEST PUSH1 0x40 MLOAD DUP1 SWAP2 SUB SWAP1 LOG3 PUSH1 0x1 SWAP1 POP SWAP3 SWAP2 POP POP JUMP JUMPDEST PUSH32 0xA8142743F8F70A4C26F3691CF4ED59718381FB2F18070EC52BE1F1022D855557 CALLVALUE PUSH1 0x40 MLOAD PUSH2 0x9B3 SWAP2 SWAP1 PUSH2 0xC8D JUMP JUMPDEST PUSH1 0x40 MLOAD DUP1 SWAP2 SUB SWAP1 LOG1 JUMP JUMPDEST PUSH1 0x0 DUP1 PUSH1 0x5 PUSH1 0x0 DUP6 PUSH20 0xFFFFFFFFFFFFFFFFFFFFFFFFFFFFFFFFFFFFFFFF AND PUSH20 0xFFFFFFFFFFFFFFFFFFFFFFFFFFFFFFFFFFFFFFFF AND DUP2 MSTORE PUSH1 0x20 ADD SWAP1 DUP2 MSTORE PUSH1 0x20 ADD PUSH1 0x0 KECCAK256 PUSH1 0x0 DUP5 PUSH20 0xFFFFFFFFFFFFFFFFFFFFFFFFFFFFFFFFFFFFFFFF AND PUSH20 0xFFFFFFFFFFFFFFFFFFFFFFFFFFFFFFFFFFFFFFFF AND DUP2 MSTORE PUSH1 0x20 ADD SWAP1 DUP2 MSTORE PUSH1 0x20 ADD PUSH1 0x0 KECCAK256 SLOAD SWAP1 POP DUP1 SWAP2 POP POP SWAP3 SWAP2 POP POP JUMP JUMPDEST PUSH1 0x0 DUP2 CALLDATALOAD SWAP1 POP PUSH2 0xA58 DUP2 PUSH2 0xEC1 JUMP JUMPDEST SWAP3 SWAP2 POP POP JUMP JUMPDEST PUSH1 0x0 DUP2 CALLDATALOAD SWAP1 POP PUSH2 0xA6D DUP2 PUSH2 0xED8 JUMP JUMPDEST SWAP3 SWAP2 POP POP JUMP JUMPDEST PUSH1 0x0 PUSH1 0x20 DUP3 DUP5 SUB SLT ISZERO PUSH2 0xA89 JUMPI PUSH2 0xA88 PUSH2 0xE59 JUMP JUMPDEST JUMPDEST PUSH1 0x0 PUSH2 0xA97 DUP5 DUP3 DUP6 ADD PUSH2 0xA49 JUMP JUMPDEST SWAP2 POP POP SWAP3 SWAP2 POP POP JUMP JUMPDEST PUSH1 0x0 DUP1 PUSH1 0x40 DUP4 DUP6 SUB SLT ISZERO PUSH2 0xAB7 JUMPI PUSH2 0xAB6 PUSH2 0xE59 JUMP JUMPDEST JUMPDEST PUSH1 0x0 PUSH2 0xAC5 DUP6 DUP3 DUP7 ADD PUSH2 0xA49 JUMP JUMPDEST SWAP3 POP POP PUSH1 0x20 PUSH2 0xAD6 DUP6 DUP3 DUP7 ADD PUSH2 0xA49 JUMP JUMPDEST SWAP2 POP POP SWAP3 POP SWAP3 SWAP1 POP JUMP JUMPDEST PUSH1 0x0 DUP1 PUSH1 0x0 PUSH1 0x60 DUP5 DUP7 SUB SLT ISZERO PUSH2 0xAF9 JUMPI PUSH2 0xAF8 PUSH2 0xE59 JUMP JUMPDEST JUMPDEST PUSH1 0x0 PUSH2 0xB07 DUP7 DUP3 DUP8 ADD PUSH2 0xA49 JUMP JUMPDEST SWAP4 POP POP PUSH1 0x20 PUSH2 0xB18 DUP7 DUP3 DUP8 ADD PUSH2 0xA49 JUMP JUMPDEST SWAP3 POP POP PUSH1 0x40 PUSH2 0xB29 DUP7 DUP3 DUP8 ADD PUSH2 0xA5E JUMP JUMPDEST SWAP2 POP POP SWAP3 POP SWAP3 POP SWAP3 JUMP JUMPDEST PUSH1 0x0 DUP1 PUSH1 0x40 DUP4 DUP6 SUB SLT ISZERO PUSH2 0xB4A JUMPI PUSH2 0xB49 PUSH2 0xE59 JUMP JUMPDEST JUMPDEST PUSH1 0x0 PUSH2 0xB58 DUP6 DUP3 DUP7 ADD PUSH2 0xA49 JUMP JUMPDEST SWAP3 POP POP PUSH1 0x20 PUSH2 0xB69 DUP6 DUP3 DUP7 ADD PUSH2 0xA5E JUMP JUMPDEST SWAP2 POP POP SWAP3 POP SWAP3 SWAP1 POP JUMP JUMPDEST PUSH2 0xB7C DUP2 PUSH2 0xD60 JUMP JUMPDEST DUP3 MSTORE POP POP JUMP JUMPDEST PUSH1 0x0 PUSH2 0xB8D DUP3 PUSH2 0xCA8 JUMP JUMPDEST PUSH2 0xB97 DUP2 DUP6 PUSH2 0xCB3 JUMP JUMPDEST SWAP4 POP PUSH2 0xBA7 DUP2 DUP6 PUSH1 0x20 DUP7 ADD PUSH2 0xD96 JUMP JUMPDEST PUSH2 0xBB0 DUP2 PUSH2 0xE5E JUMP JUMPDEST DUP5 ADD SWAP2 POP POP SWAP3 SWAP2 POP POP JUMP JUMPDEST PUSH1 0x0 PUSH2 0xBC8 PUSH1 0x1D DUP4 PUSH2 0xCB3 JUMP JUMPDEST SWAP2 POP PUSH2 0xBD3 DUP3 PUSH2 0xE6F JUMP JUMPDEST PUSH1 0x20 DUP3 ADD SWAP1 POP SWAP2 SWAP1 POP JUMP JUMPDEST PUSH1 0x0 PUSH2 0xBEB PUSH1 0x13 DUP4 PUSH2 0xCB3 JUMP JUMPDEST SWAP2 POP PUSH2 0xBF6 DUP3 PUSH2 0xE98 JUMP JUMPDEST PUSH1 0x20 DUP3 ADD SWAP1 POP SWAP2 SWAP1 POP JUMP JUMPDEST PUSH2 0xC0A DUP2 PUSH2 0xD8C JUMP JUMPDEST DUP3 MSTORE POP POP JUMP JUMPDEST PUSH1 0x0 PUSH1 0x20 DUP3 ADD SWAP1 POP PUSH2 0xC25 PUSH1 0x0 DUP4 ADD DUP5 PUSH2 0xB73 JUMP JUMPDEST SWAP3 SWAP2 POP POP JUMP JUMPDEST PUSH1 0x0 PUSH1 0x20 DUP3 ADD SWAP1 POP DUP2 DUP2 SUB PUSH1 0x0 DUP4 ADD MSTORE PUSH2 0xC45 DUP2 DUP5 PUSH2 0xB82 JUMP JUMPDEST SWAP1 POP SWAP3 SWAP2 POP POP JUMP JUMPDEST PUSH1 0x0 PUSH1 0x20 DUP3 ADD SWAP1 POP DUP2 DUP2 SUB PUSH1 0x0 DUP4 ADD MSTORE PUSH2 0xC66 DUP2 PUSH2 0xBBB JUMP JUMPDEST SWAP1 POP SWAP2 SWAP1 POP JUMP JUMPDEST PUSH1 0x0 PUSH1 0x20 DUP3 ADD SWAP1 POP DUP2 DUP2 SUB PUSH1 0x0 DUP4 ADD MSTORE PUSH2 0xC86 DUP2 PUSH2 0xBDE JUMP JUMPDEST SWAP1 POP SWAP2 SWAP1 POP JUMP JUMPDEST PUSH1 0x0 PUSH1 0x20 DUP3 ADD SWAP1 POP PUSH2 0xCA2 PUSH1 0x0 DUP4 ADD DUP5 PUSH2 0xC01 JUMP JUMPDEST SWAP3 SWAP2 POP POP JUMP JUMPDEST PUSH1 0x0 DUP2 MLOAD SWAP1 POP SWAP2 SWAP1 POP JUMP JUMPDEST PUSH1 0x0 DUP3 DUP3 MSTORE PUSH1 0x20 DUP3 ADD SWAP1 POP SWAP3 SWAP2 POP POP JUMP JUMPDEST PUSH1 0x0 PUSH2 0xCCF DUP3 PUSH2 0xD8C JUMP JUMPDEST SWAP2 POP PUSH2 0xCDA DUP4 PUSH2 0xD8C JUMP JUMPDEST SWAP3 POP DUP3 PUSH32 0xFFFFFFFFFFFFFFFFFFFFFFFFFFFFFFFFFFFFFFFFFFFFFFFFFFFFFFFFFFFFFFFF SUB DUP3 GT ISZERO PUSH2 0xD0F JUMPI PUSH2 0xD0E PUSH2 0xDFB JUMP JUMPDEST JUMPDEST DUP3 DUP3 ADD SWAP1 POP SWAP3 SWAP2 POP POP JUMP JUMPDEST PUSH1 0x0 PUSH2 0xD25 DUP3 PUSH2 0xD8C JUMP JUMPDEST SWAP2 POP PUSH2 0xD30 DUP4 PUSH2 0xD8C JUMP JUMPDEST SWAP3 POP DUP3 DUP3 LT ISZERO PUSH2 0xD43 JUMPI PUSH2 0xD42 PUSH2 0xDFB JUMP JUMPDEST JUMPDEST DUP3 DUP3 SUB SWAP1 POP SWAP3 SWAP2 POP POP JUMP JUMPDEST PUSH1 0x0 PUSH2 0xD59 DUP3 PUSH2 0xD6C JUMP JUMPDEST SWAP1 POP SWAP2 SWAP1 POP JUMP JUMPDEST PUSH1 0x0 DUP2 ISZERO ISZERO SWAP1 POP SWAP2 SWAP1 POP JUMP JUMPDEST PUSH1 0x0 PUSH20 0xFFFFFFFFFFFFFFFFFFFFFFFFFFFFFFFFFFFFFFFF DUP3 AND SWAP1 POP SWAP2 SWAP1 POP JUMP JUMPDEST PUSH1 0x0 DUP2 SWAP1 POP SWAP2 SWAP1 POP JUMP JUMPDEST PUSH1 0x0 JUMPDEST DUP4 DUP2 LT ISZERO PUSH2 0xDB4 JUMPI DUP1 DUP3 ADD MLOAD DUP2 DUP5 ADD MSTORE PUSH1 0x20 DUP2 ADD SWAP1 POP PUSH2 0xD99 JUMP JUMPDEST DUP4 DUP2 GT ISZERO PUSH2 0xDC3 JUMPI PUSH1 0x0 DUP5 DUP5 ADD MSTORE JUMPDEST POP POP POP POP JUMP JUMPDEST PUSH1 0x0 PUSH1 0x2 DUP3 DIV SWAP1 POP PUSH1 0x1 DUP3 AND DUP1 PUSH2 0xDE1 JUMPI PUSH1 0x7F DUP3 AND SWAP2 POP JUMPDEST PUSH1 0x20 DUP3 LT DUP2 EQ ISZERO PUSH2 0xDF5 JUMPI PUSH2 0xDF4 PUSH2 0xE2A JUMP JUMPDEST JUMPDEST POP SWAP2 SWAP1 POP JUMP JUMPDEST PUSH32 0x4E487B7100000000000000000000000000000000000000000000000000000000 PUSH1 0x0 MSTORE PUSH1 0x11 PUSH1 0x4 MSTORE PUSH1 0x24 PUSH1 0x0 REVERT JUMPDEST PUSH32 0x4E487B7100000000000000000000000000000000000000000000000000000000 PUSH1 0x0 MSTORE PUSH1 0x22 PUSH1 0x4 MSTORE PUSH1 0x24 PUSH1 0x0 REVERT JUMPDEST PUSH1 0x0 DUP1 REVERT JUMPDEST PUSH1 0x0 PUSH1 0x1F NOT PUSH1 0x1F DUP4 ADD AND SWAP1 POP SWAP2 SWAP1 POP JUMP JUMPDEST PUSH32 0x596F7520646F6E2774206861766520656E6F7567682062616C616E6365000000 PUSH1 0x0 DUP3 ADD MSTORE POP JUMP JUMPDEST PUSH32 0x416D6F756E74206E6F7420617070726F76656400000000000000000000000000 PUSH1 0x0 DUP3 ADD MSTORE POP JUMP JUMPDEST PUSH2 0xECA DUP2 PUSH2 0xD4E JUMP JUMPDEST DUP2 EQ PUSH2 0xED5 JUMPI PUSH1 0x0 DUP1 REVERT JUMPDEST POP JUMP JUMPDEST PUSH2 0xEE1 DUP2 PUSH2 0xD8C JUMP JUMPDEST DUP2 EQ PUSH2 0xEEC JUMPI PUSH1 0x0 DUP1 REVERT JUMPDEST POP JUMP INVALID LOG2 PUSH5 0x6970667358 0x22 SLT KECCAK256 BYTE LOG2 SWAP10 0xED SDIV 0xD 0x22 0x28 CODESIZE CODESIZE SWAP6 ADD SSTORE 0x4A PC 0x1E PUSH27 0x702335C6A697BFE1C7D7EEF4C22D6964736F6C6343000807003300 "
				},
				"gasEstimates": {
					"creation": {
						"codeDepositCost": "775400",
						"executionCost": "infinite",
						"totalCost": "infinite"
					},
					"external": {
						"": "1386",
						"allowance(address,address)": "infinite",
						"approve(address,uint256)": "infinite",
						"balanceOf(address)": "2836",
						"decimals()": "2429",
						"deposit()": "1398",
						"getBalance()": "384",
						"name()": "infinite",
						"symbol()": "infinite",
						"totalSupply()": "2496",
						"transfer(address,uint256)": "infinite",
						"transferFrom(address,address,uint256)": "infinite"
					}
				},
				"methodIdentifiers": {
					"allowance(address,address)": "dd62ed3e",
					"approve(address,uint256)": "095ea7b3",
					"balanceOf(address)": "70a08231",
					"decimals()": "313ce567",
					"deposit()": "d0e30db0",
					"getBalance()": "12065fe0",
					"name()": "06fdde03",
					"symbol()": "95d89b41",
					"totalSupply()": "18160ddd",
					"transfer(address,uint256)": "a9059cbb",
					"transferFrom(address,address,uint256)": "23b872dd"
				}
			},
			"userdoc": {
				"kind": "user",
				"methods": {},
				"version": 1
			}
		}
	}
}